:020000040800F2
:1000000050070020890100082F1D0008BD180008B6
:100010002D1D00088F020008352400080000000094
:100020000000000000000000000000001B2100088C
:10003000A102000800000000051F0008312100088F
:10004000A3010008A3010008A3010008A301000800
:10005000A3010008A3010008A3010008A3010008F0
:10006000A3010008A3010008A3010008A3010008E0
:10007000A3010008A3010008A3010008A3010008D0
:10008000A3010008A3010008A3010008A3010008C0
:10009000A3010008A3010008A3010008A3010008B0
:1000A000A3010008A3010008A3010008A3010008A0
:1000B000A3010008A3010008A3010008A301000890
:1000C000A3010008A3010008A3010008A301000880
:1000D000A301000829240008A3010008A3010008C7
:1000E000A3010008A3010008A301000800F002F822
:1000F00000F03AF80AA090E8000C82448344AAF188
:100100000107DA4501D100F02FF8AFF2090EBAE885
:100110000F0013F0010F18BFFB1A43F0010318473B
:10012000982A0000B82A0000103A24BF78C878C185
:10013000FAD8520724BF30C830C144BF04680C60ED
:10014000704700000023002400250026103A28BF35
:1001500078C1FBD8520728BF30C148BF0B60704739
:100160001FB51FBD10B510BD00F058F81146FFF7C0
:10017000F7FF02F071F900F076F803B4FFF7F2FF31
:1001800003BC00F07DF8000009488047094800479B
:10019000FEE7FEE7FEE7FEE7FEE7FEE7FEE7FEE737
:1001A000FEE7FEE704480549054A064B7047000094
:1001B000B5210008ED000008500100205007002084
:1001C00050030020500300204FF0000200B51346FA
:1001D00094469646203922BFA0E80C50A0E80C5067
:1001E000B1F12001BFF4F7AF090728BFA0E80C5018
:1001F00048BF0CC05DF804EB890028BF40F8042B11
:1002000008BF704748BF20F8022B11F0804F18BF7D
:1002100000F8012B7047704770477047754600F033
:100220002BF8AE4605006946534620F00700854688
:1002300018B020B5FFF7B6FFBDE820404FF000062C
:100240004FF000074FF000084FF0000B21F00701BE
:10025000AC46ACE8C009ACE8C009ACE8C009ACE801
:10026000C0098D46704710B50446AFF300802046A4
:10027000BDE81040FFF781BF00487047EC00002048
:1002800001491820ABBEFEE7260002007047FEE7DA
:100290000A460146014800F006B8000004000020AC
:1002A000704772B6FEE730B50223437103689C685D
:1002B00044F001049C60002304E0056851F82340E9
:1002C0002C605B1C9342F8D30168096801224271DB
:1002D000084630BD10B5040002D0607910B106E0C8
:1002E000012010BD00202071204600F005F80120FB
:1002F0006071002010BD000008B500680649884202
:1003000008D10648416941F040014161406900F06F
:100310004000009008BD0000003002400010024084
:1003200010B590F821100022022905D00421816324
:1003300080F82020012010BD01680B6823F00E0317
:100340000B6001680B6823F001030B6090F84030EC
:10035000C46B012101FA03F3636080F8211080F877
:100360002020104610BD000010B590F82110002488
:10037000022903D00421816301243DE001680A6859
:1003800022F00E020A6001680A6822F001020A6087
:100390001A4A0168914201D1012121E0174A143221
:1003A000914201D110211BE0144A2832914201D11F
:1003B000891515E0114A3C32914201D189140FE0B0
:1003C0000E4A5032914202D14FF4803108E00B4A7C
:1003D0006432914202D14FF4801101E04FF08071FC
:1003E000064A083A5160012180F82110002180F866
:1003F0002010416B01B18847204610BD0800024023
:1004000070B5044600F008F90546601C02D00448A7
:100410000078044400F000F9401BA042FAD370BDFC
:100420000C0000202DE9F84FDFF8B8910024A9F165
:10043000040B23460F2709F1040AABF1040EC9E0AF
:100440000125A5402A40AA427DD1674ED1F804C0BB
:10045000ACEB0608B44532D014DCBCF1030F3AD043
:1004600009DCBCF1000F2AD0BCF1010F1CD0BCF19B
:10047000020F31D11DE0BCF1110F17D0BCF1120FEA
:100480002AD119E0B8F5881F19D006DCB8F5803FED
:1004900015D0B8F5801F1FD111E0B8F5001F0ED0A0
:1004A000B8F5041F18D10AE0CB6815E0CB681B1D16
:1004B00012E0CB6808330FE0CB680C330CE08B689C
:1004C0002BB1012B4FF0080303D0456104E0042356
:1004D00002E0056100E00023FF2A01D8064601E0A2
:1004E00000F104064FEA840501D9A5F12005D6F8EC
:1004F000008007FA05FC28EA0C0803FA05F548EA2B
:100500000508C6F800804D68ED0062D5374DAE692C
:1005100046F00106AE61AD6924F0030605F0010561
:100520000095334D06EB050CDCF80850A607360F96
:1005300007FA06F825EA0805DFF8B880404503D138
:100540004FF0000817E044E0DFF8AC80404502D1EE
:100550004FF001080FE0DFF8A480404502D14FF0D2
:10056000020808E0DFF89880404502D14FF0030808
:1005700001E04FF0040808FA06F848EA0508CCF84C
:1005800008804D68D9F80060ED024D4601D516434C
:1005900000E096432E604D68DAF80060AD025546E3
:1005A00001D5164300E096432E604D68DBF80060ED
:1005B000AD035D4601D5164300E096432E604D68BD
:1005C000DEF80060ED03754601D5164300E0964362
:1005D0002E60641C0D682A46E5407FF431AFBDE80B
:1005E000F88F0000080401400000111000100240C4
:1005F0000000014000080140000C014000100140D3
:10060000001401408068084000D0012070470AB102
:10061000016170470904FBE70148806870470000EA
:100620000C00002070B5040025D094F83D00002592
:1006300020B984F83C50204600F050F9242084F87A
:100640003D002068016821F0010101602068016817
:1006500041F4004101602068016821F4004101601B
:1006600000F070FB4D4A6168914201D84C4900E0AE
:100670004C49884201D2012070BD4B492368B0FB30
:10068000F1F15E6826F03F060E435E6063689342B8
:1006900006D94FF4967359434FF47A73B1FBF3F1D3
:1006A0002368491C1E6A26F03F06314319626168BF
:1006B000914210D84900401EB0FBF1F2521CC2F327
:1006C0000B02042A01D2042022E0B0FBF1F0401C0E
:1006D000C0F30B001CE0A268F2B301EBC10303EB13
:1006E0000116431EB3FBF6F35B1C43F480431B056A
:1006F00049D092B301EBC10202EB0111401EB0FBE5
:10070000F1F0401CC0F30B0040F4804040F4004086
:100710002168CA694CF6FF739A431043C861D4E953
:10072000071001432068026822F0C00211430160F3
:10073000D4E9030101432068826848F2FF339A43F9
:1007400011438160D4E9050108432168CA6822F099
:10075000FF021043C86001E00EE016E02068016867
:1007600041F0010101602564202084F83D002563EB
:1007700084F83E50002070BD01EB4106431EB3FBE0
:10078000F6F35B1CB3E70120C2E701EB4101401E19
:10079000B0FBF1F0401CC0F30B00B7E7A0860100EE
:1007A00080841E0000093D0040420F002DE9FF4FEC
:1007B00083B09A46DDE9119793460446DDF8408000
:1007C000FFF72AFF054694F83D0020287FD1192322
:1007D000012240492046009501F008F9002876D111
:1007E00094F83C00012872D0012084F83C00206875
:1007F0000168C90703D1016841F001010160206867
:10080000016821F400610160212084F83D0040204E
:1008100084F83E0000262664C4F82480A4F82A90B8
:10082000608D20852C48E062CDE9007553465A461C
:100830002046049901F05AF870B930E02A4639464A
:10084000204601F079F958B1206C042804D12068C1
:10085000016841F400710160012007B0BDE8F08F2C
:10086000606A216800780861606A401C6062218DBE
:10087000491E89B22185628D521E628522685369A4
:10088000DB435B070BD469B100781061606A401CE0
:100890006062208D401E2085608D401E6085208D09
:1008A0000028CBD12A463946204601F073F80028AB
:1008B000CAD154F83D0B016841F400710160202059
:1008C00004F81E09E67766770020C6E7FFE70220F6
:1008D000C3E70000020010000000FFFF10B586B063
:1008E000002100910191029103910068134988420F
:1008F00022D1134CA06940F00800A061A0696946AC
:1009000000F0080004904FF4407000901220019015
:10091000032003900B48FFF785FD0B48416841F029
:10092000E06141F002014160E06940F40010E061E3
:10093000E06900F40010049006B010BD00540040BF
:1009400000100240000C0140000001400248816894
:1009500002781144816070470C000020074810B5F0
:10096000016841F010010160032000F075F80F20CC
:1009700000F006F800F024F8002010BD002002402E
:1009800070B50D4D04464FF47A712878B1FBF0F044
:100990000A490968B1FBF0F000F077FD48B9102C66
:1009A00007D200222146501E00F036F800206C606D
:1009B00070BD012070BD00000C0000201800002058
:1009C0000C4808B5816941F001018161816901F03C
:1009D00001010091C16941F08051C161C06900F01D
:1009E000805000900448416821F0E06141F00071BE
:1009F000416008BD0010024000000140002809DBF2
:100A000000F01F02012191404009800000F1E02028
:100A1000C0F8001170470000F0B40E4B1B680C4684
:100A2000C3F30223C3F10705042D00D90425191DC2
:100A3000072901D2002300E0DB1E012606FA05F19A
:100A4000491E214099409E40761E16403143F0BC1D
:100A500001F0F1BC0CED00E0064900F00702086867
:100A60004FF6FF03184040EA0220034A1043086093
:100A7000704700000CED00E00000FA05014901207C
:100A80000862704700000E4210B501460020234C5A
:100A9000012922D0022939D010291DD1616822688C
:100AA000D20119D51E48C1F38342C903805C0AD51F
:100AB00061681B4AC1F34041921E515C194AB2FB66
:100AC000F1F1484301E0184948436168490203D401
:100AD00040000321B0FBF1F010BD226AC2F30121F6
:100AE000012903D1920701D5C80310BD022905D100
:100AF000626A920702D549F6404010BD0329FCD135
:100B000021688903F9D54FF2244010BD00F02AF97D
:100B10006168C1F38131491C4900DBE700100240E4
:100B2000A025000800127A0000093D002DE9F843D5
:100B300005460078354CC00754D0E0690026C00057
:100B400008D4E06940F08050E061E069012600F0DF
:100B5000805000902E480168C90512D40168804673
:100B600041F480710160FFF757FD074605E000BFC3
:100B7000FFF752FDC01B642823D8D8F80000C00539
:100B8000F6D5206A10F4407021D0A98801F4407194
:100B900081421CD0206A1F49012220F440700A6063
:100BA00000220A602062C00711D0FFF735FD07461A
:100BB00041F2883808E000BFFFF72EFDC11B414518
:100BC00002D90320BDE8F883206A8007F4D5206AA3
:100BD000696820F44070084320621EB1E06920F08B
:100BE0008050E0612878800705D56068A96820F406
:100BF0004040084360602878C00605D56068E96811
:100C000020F48000084360600020DBE70010024011
:100C100000700040400442422DE9F0470F460500B5
:100C200061D0434E306800F00700B84209D2306806
:100C300020F0070038433060306800F00700B84209
:100C400051D128683B4C810712D5400703D5606815
:100C500040F4E06060602878000703D5606840F4E5
:100C6000605060606068A96820F0F0000843606030
:100C70002878C00728D06868012810D02168022889
:100C800010D0890700292EDA616821F003010143A1
:100C90006160FFF7C1FC804641F288390DE02168B0
:100CA0008903EFE78901EDE7FFF7B6FCA0EB080148
:100CB000494502D90320BDE8F0876068696800F003
:100CC0000C00B0EB810FEFD1306800F00700B842A4
:100CD0000BD9306820F0070038433060306800F0EE
:100CE0000700B84201D00120E5E72878400705D584
:100CF0006068E96820F4E0600843606028780007D5
:100D000006D56068296920F4605040EAC10060603F
:100D100000F038F86168084AC1F30311515CC8401B
:100D20000649086006480068FFF72AFE0020C2E76F
:100D30000020024000100240B025000818000020EA
:100D4000100000200448054900684968044AC1F3BE
:100D50000221515CC840704718000020001002407A
:100D6000C02500080448054900684968044AC1F3E1
:100D7000C221515CC840704718000020001002409A
:100D8000C02500080E4A51680E4801F00C03042BE0
:100D900011D0082B0FD10C48C1F38343C903C05CA9
:100DA0000AD55168084AC1F34041921E515C054A78
:100DB0005043B0FBF1F070470449484370470000CE
:100DC0000010024000127A008E25000800093D0044
:100DD0002DE9F84F040070D02078C04DC00749D0ED
:100DE0006868C0F38100012807D06868C0F38100FB
:100DF000022809D16868C00306D52868800339D560
:100E000060680028E7D035E06068B0F5803F0BD01F
:100E100010B1B0F5A02F11D0286820F480302860E0
:100E2000286820F4802002E0286840F480302860A0
:100E3000606890B1FFF7F0FB06460AE0286840F4CE
:100E400080202860F0E700BFFFF7E6FB801B6428E6
:100E500073D828688003F7D50CE0FFF7DDFB064662
:100E600005E000BFFFF7D8FB801B6428F0D8286896
:100E70008003F7D420789A4E80074FF001094FF095
:100E8000000839D5686810F00C0F07D06868C0F307
:100E90008100022809D16868C00306D42868800749
:100EA00014D52069012808D110E02069B0B1C6F836
:100EB0000090FFF7B1FB074605E00AE1FFF7ACFB46
:100EC000C01B0228C4D828688007F7D52868616944
:100ED00020F0F80040EAC10028600DE0C6F800806C
:100EE000FFF79AFB074604E0FFF796FBC01B0228BA
:100EF00023D828688007F7D4207800072CD57948B4
:100F0000A169D9B1C0F80090FFF786FB074604E05D
:100F1000FFF782FBC01B02280FD8686A8007F7D54D
:100F200071484FF4FA510068B0FBF1F0009000BF37
:100F30000098411E0091FAD20EE080E0C0F80080D7
:100F4000FFF76AFB074604E0FFF766FBC01B0228B9
:100F500075D8686A8007F7D42078400760D5E869BB
:100F60000027C00008D4E86940F08050E861E869D3
:100F7000012700F0805000905C480168C90513D437
:100F80000168834641F480710160FFF745FB8246AA
:100F900006E000BFFFF740FBA0EB0A0064284ED834
:100FA000DBF80000C005F5D5E06801280AD008B1DB
:100FB000052813D0286A20F001002862286A20F052
:100FC000040002E0286A40F001002862E06841F273
:100FD000883B98B1FFF720FB82460BE0286A40F07F
:100FE00004002862EEE700BFFFF716FBA0EB0A0142
:100FF00059455AD8286A8007F6D50CE0FFF70CFB54
:10100000824605E0FFF708FBA0EB0A0159454CD8E2
:10101000286A8007F6D41FB1E86920F08050E861A3
:10102000E06988B36968C1F38101022944D00228CC
:10103000C6F8608004D0FFF7EFFA044638E034E0E9
:10104000FFF7EAFA074604E0FFF7E6FAC01B0228BA
:101050002BD828688001F7D4206AB0F5803F05D1ED
:101060006868A16820F4003008436860D4E908018A
:101070000843696821F4741108436860C6F86090F9
:10108000FFF7CAFA044606E025E000BFFFF7C4FAFE
:10109000001B022809D828688001F7D51BE000BF93
:1010A000FFF7BAFA001B022802D90320BDE8F88F27
:1010B00028688001F4D40EE00128F7D06868226A1D
:1010C00000F48031914204D1616A00F470108842CA
:1010D00001D00120EAE70020E8E70000001002400C
:1010E000000042428004424218000020007000408C
:1010F000F8B505004FF0000016460C46009006D0EB
:101100002CB100226946284600F019F808B10120E8
:10111000F8BD287B2070E87BE070697B6170A97B5B
:10112000A17056B100F0F8FEE070607800F0F4FEB7
:101130006070A07800F0F0FEA0700020F8BD2DE9EE
:10114000F04791460C465FEA00084AD084B3D8F8CD
:1011500000004068400744D4404600F07BFF4FF455
:1011600061620546B0FBF2F1B0FBF2F302FB1350F3
:101170003C23B0FBF3F0B5FBF2F6607002FB1650B7
:10118000B0FBF3F203FB1200A070182931D3182032
:10119000B1FBF0F7B1FBF0F200FB121020704046FB
:1011A00000F051FF411C04D0A84202D9461B02E0C6
:1011B00017E04FF0FF36A7EB071000EB4000C0EB45
:1011C000001005EBC0152946404600F092FF40B9DB
:1011D000701C01D0711900E03146404600F075FFE7
:1011E00010B10120BDE8F0873946404600F09FFE6F
:1011F00000E02170B9F1000F0BD0207800F08CFED8
:101200002070607800F088FE6070A07800F084FEA6
:10121000A0700020E6E7000070B5040003D0607CF9
:10122000002610B105E0012070BD2674204600F0B4
:101230003DF802206074204600F00AF9042550BBF6
:10124000204600F0CBFE30BB2068416821F007014A
:101250004160A06820B11448016821F001010160DB
:101260001148001F0168A26821F4607111430160F8
:101270006068411C04D10120FFF706FC58B1401EF4
:101280002268C0F303419160216880B2C8602046A3
:1012900000F0BEFE08B16574C5E7E6730120607317
:1012A000A0736074002070BD306C004008B5006809
:1012B000084988420DD1FFF7E1FB0748C16941F0B9
:1012C0000061C161C069054900F000600090012023
:1012D000086008BD00280040001002403C04424263
:1012E0002DE9F0410D4604003BD0C5B3207C012818
:1012F0003AD04FF0010884F8108002206074E8783A
:1013000072B300F000FEE073687800F0FCFD6073DB
:10131000A87800F0F8FDA073C2B2617BE07B00F01A
:10132000A9FE20732870204600F094FE4FF46161FE
:10133000B0FBF1F1002518292DD91822B1FBF2F1EB
:10134000A1EB011101EB4101C1EB011100EBC11651
:101350003146204600F0CDFE0427C8B90BE000E07E
:1013600004E00120BDE8F0810220FBE7E07368782B
:101370006073A878CFE7204600F065FE411C0AD0D4
:10138000B04208D206490144204600F09EFE10B14A
:1013900067742574E5E784F8118025740020E1E77F
:1013A000805101002DE9F0410D46040024D01DB309
:1013B000207C012823D04FF0010884F810800220FF
:1013C00060742878EAB100F09EFD4FF4616100FB83
:1013D00001F6687800F097FDC0EB001006EB800680
:1013E000A87800F090FD35182946204600F081FECF
:1013F0000026042710BB0FE00120BDE8F081022089
:10140000FBE74FF4616148436978C1EB011100EBE0
:101410008100A9784518E7E72068416821F00501B7
:101420004160204600F00FFE411C0AD0A84208D2BD
:1014300006490144204600F048FE10B16774267446
:10144000DAE784F8118026740020D6E78051010085
:1014500070B504000AD02068416821F0080141609D
:10146000FFF7DAF805464FF47A7608E0012070BD00
:10147000FFF7D2F8401BB04201D9032070BD2068AD
:1014800040680007F4D5002070BD10B5401EB0F1D3
:10149000807F01D3012010BD4FF0E02460610F2157
:1014A000601700F0C8FF0020A06107202061002025
:1014B00010BD704770470000F8B501680446086821
:1014C000CA684B6910F00F0F4FF0000559D003F0B8
:1014D000010602F49077374365D0C10705D0D105E6
:1014E00003D5616C41F001016164410705D5D9075D
:1014F00003D0616C41F002016164810705D5D90711
:1015000003D0616C41F004016164010707D502F06A
:101510002001314303D0616C41F008016164616CCA
:1015200000293AD0800604D5900602D5204600F066
:1015300084FE20684069616CC0F38010090700D404
:1015400060B3204600F052FE20684069400621D575
:101550002068143050E8001F21F0400140E80012DC
:10156000002AF5D1E06BA8B16D494163E06BFEF74D
:10157000FBFE002811D0E06B416B01B0BDE8F040EC
:10158000084783060FD593060DD52046BDE8F840E1
:1015900000F053BE2046FFF78DFFF8BD2046FFF751
:1015A00089FF6564F8BD266B2023012E7CD1C60619
:1015B0007AD5D60678D508684868009048694FF013
:1015C0000206400640D5E16B086840680004000C44
:1015D000E8D0A28D8242E5D9E085886920282DD007
:1015E00020680C3050E8001F21F4807140E80012A0
:1015F000002AF5D12068143050E8001F21F00101C5
:1016000040E80012002AF5D12068143050E8001F8D
:1016100021F0400140E80012002AF5D184F8423060
:10162000256320680C3050E8001F21F0100140E8CD
:101630000012002AF5D1E06BFEF772FE6663A08D02
:10164000E18D401A81B22AE0A08DE18D401A81B26D
:10165000E08D0028A6D00029A4D022680C3252E8E0
:10166000000F20F4907042E80007002FF5D12068A9
:10167000143050E8002F22F0010240E80027002F2C
:10168000F5D184F84230256320680C3050E8002FF3
:1016900022F0100240E80023002BF5D166632046BB
:1016A000FFF707FFF8BDFFE705062BD5150629D57F
:1016B00094F841002128F5D1A068B0F5805F01D1F0
:1016C0002069B0B1206A411C21622168007848601D
:1016D000E08C401E0004000CE084E3D12068C16867
:1016E00021F08001C1602068C16841F04001C16003
:1016F000D8E7206A0088C0F308004860206A801C90
:101700002062E5E74006CDD55006CBD5CA68204615
:1017100022F04002CA6084F8413000F0CEF8C1E700
:10172000DD21000870B5040004D094F841000025C4
:1017300010B106E0012070BD84F84050204600F052
:1017400023F8242084F841002068C16821F4005166
:10175000C160204600F0D2FD2068016921F490416B
:1017600001612068416921F02A0141612068C16856
:1017700041F40051C1606564202084F8410084F880
:1017800042006563002070BD30B585B00024009430
:101790000194029403940068184988422CD1184897
:1017A000816941F480418161816901F48041049142
:1017B000816941F0040181618069124D00F00400EB
:1017C00004904FF4007000900220019003200390D9
:1017D00069462846FEF726FE2815CDE9000469462D
:1017E00028460294FEF71EFE002211462520FFF730
:1017F00013F92520FFF702F905B030BD003801408C
:1018000000100240000801402DE9F84F044690F80E
:1018100042009A4616460D46202802D00220BDE816
:10182000F88FB5B1AEB100206064222184F8421077
:101830002063FEF7F1FEA6858146E685A0684FF499
:1018400080582027404501D1206920B12E4600252F
:1018500029E00120E3E7002625E04B460022202175
:101860002046CDF800A000F0A5FD18B184F8427024
:101870000320D4E726B1A06840451AD038B108E06B
:1018800020684068C0F3080025F8020B08E02069D2
:1018900078B12068406800F07F0000BF06F8010BB7
:1018A000E08D401EE085E08D0028D6D184F842709E
:1018B000B5E720684068F1E770477047FEE70168C8
:1018C0004A69D24352050FD46FF480624A61002105
:1018D00040F8301F202242738173026942F00402F3
:1018E0000261017301207047002070472DE9F84321
:1018F000044600680D46DDE90897016898461646DB
:1019000041F4807101604B4600224FF001112046E6
:10191000009700F06BF848B120680068C00502D558
:101920004FF4007020640320BDE8F883216805F0BF
:10193000FE0008613B464A461549204600F09EF8E5
:1019400088B920684169806900903A464946204636
:1019500000F0F2F848B1206C042804D12068016836
:1019600041F4007101600120DEE7F5B2B8F1010F2A
:1019700009D02168300A08613A464946204600F0FD
:10198000DBF80028E7D1206805610020CCE70000E3
:101990000200010070B516460D4604461EE02046C2
:1019A000FFF78DFF08B1012070BD681C16D0FEF74F
:1019B00033FE801BA84200D885B920684069C04327
:1019C00040070BD5002044F8300F20216173A0732D
:1019D000216941F0200121612073E4E7206840691A
:1019E000C0434007DBD4002070BD00002DE9F04764
:1019F000984617460D460446C1F30746DDF8209089
:101A00002AE000BFB8F1FF3F26D0FEF705FEA0EBAD
:101A10000901414502D8B8F1000F1DD12068012EFF
:101A200016D0806925EA00000004000C12D00020C6
:101A3000B84211D1002044F8300F20216173A07307
:101A4000216941F02001216120730120BDE8F08768
:101A50004069E7E70120EBE72068012E0AD08069A2
:101A600025EA00000004000C06D00020B842C9D0CE
:101A70000020EBE74069F3E70120F7E72DE9F047A5
:101A8000984616460D4604464FF000094FF0200ACE
:101A9000C1F3074723E020684069C043400515D4DF
:101AA0002068016841F40071016021686FF4806072
:101AB0004861C4F8309084F83DA084F83E90216CD1
:101AC00041F00401216484F83C9021E0701C06D0B0
:101AD000FEF7A2FDA0EB0800B04203D816B1012F1B
:101AE0001FD021E02068012F15D0806925EA000071
:101AF0000004000C18D000BF44F8309F84F80DA0FB
:101B000084F80E90216941F02001216184F80C9045
:101B10000120BDE8F087406925EA00000004000CC0
:101B2000EAD12068406901E02068806925EA000068
:101B30000004000CAFD1ECE770B516460D46044624
:101B40001EE02046FFF7BBFE08B1012070BD681CF7
:101B500016D0FEF761FD801BA84200D885B9206829
:101B60004069C04300060BD5002044F8300F202107
:101B70006173A073216941F0200121612073E4E7C2
:101B800020684069C0430006DBD4002070BD00001F
:101B9000074910B5054808600846FEF79BFB00287A
:101BA00003D0BDE81040FEF77CBB10BD0030024002
:101BB0000400002070B586B00025204800950195EE
:101BC00002950395816941F010018161816901F0FD
:101BD00010010491816941F020018161816901F066
:101BE00020010491816941F004018161816901F062
:101BF00004010491816941F0080181618069104EFE
:101C000000F008000490002202213046FEF7FFFC9D
:101C100002200124CDE900040320CDE902406946F9
:101C20003046FEF7FFFB0420CDE90005694602942B
:101C30003046FEF7F7FB06B070BD00000010024012
:101C4000000801400D4810B50B4901600C49416086
:101C500000214FF480428160C0E90312416181613B
:101C6000C1610162FEF7DEFC002803D0BDE8104030
:101C7000FEF717BB10BD0000005400403C000020E0
:101C8000A08601007CB500241948019417490094EE
:101C90000160611EC0E90114FFF7BEFA08B1FEF74A
:101CA00000FB11208DF8040019258DF805508DF8E2
:101CB0000640002201A90E48FFF774FB08B1FEF7A9
:101CC000F0FA01208DF8000004208DF801001B209F
:101CD0008DF802008DF80350002269460448FFF792
:101CE000FFFA002801D0FEF7DCFA7CBD0028004096
:101CF000900000200C4810B50A4901604FF41651BD
:101D00004160002181600C22C160C0E90412816140
:101D1000C161FFF707FD002803D0BDE81040FEF7C2
:101D2000C0BA10BD00380140A4000020FEE7FEE765
:101D300070B500240021204600F025F80025002081
:101D400000F0CEF86D1CEDB2802DF8D3641CE4B227
:101D5000082CEFD370BD000070B5C820FEF750FB13
:101D6000044D0024285D00F0A9F8641CE4B2172C8F
:101D7000F8D370BD1C0000200246012000E0504353
:101D8000491EFCD2704710B50C4640F0B00000F080
:101D900095F8102040EA141000F090F804F00F00BD
:101DA000BDE8104000F08AB82DE9F0410746CE00AA
:101DB0004000083E801E15464FF0FF38F1B2C0B219
:101DC000FFF7E1FF1148002400EB05152819A0F5E5
:101DD000805090F8000E00F083F8641CE4B2082CE8
:101DE000F4D308EB4700F1B2C0B2FFF7CCFF0024F8
:101DF0002819A0F5805090F8080E00F071F8641CC6
:101E0000E4B2082CF4D3BDE8F0810000C825000836
:101E10002DE9F0411D4617460E468046002415E088
:101E2000291B1020491EFFF7A7FFB7FBF0F000F0B9
:101E30000F0206EB0400C1B20A2A404601D230323A
:101E400000E03732FFF7B0FF641CE4B2AC42E7D3E6
:101E5000BDE8F0812DE9F04700241D46164688466E
:101E600081460A2713E0291B0A20491EFFF784FF39
:101E7000B6FBF0F0B0FBF7F107FB110208EB040032
:101E8000C1B248463032FFF78FFF641CE4B2AC4267
:101E9000E9D3BDE8F0872DE9F04115460E46074627
:101EA000002406E03019C1B23846FFF77DFF641CFC
:101EB000E4B22A5D002AF5D1BDE8F08101B584B015
:101EC00001214FF4807204A88DE807000B46002220
:101ED00078210248FEF76AFC05B000BD3C000020F6
:101EE00001B584B001214FF4807204A88DE8070089
:101EF0000B46402278210248FEF758FC05B000BD91
:101F00003C0000207047010901EB810100F00F0047
:101F100000EB4100C0B27047002102E00A38C0B2B5
:101F2000491C0A28FAD2090740EA116070472DE9D6
:101F3000F04104460025C07B627BA37B42E0012A7E
:101F400016D0032A14D0052A12D0072A10D0082A46
:101F50000ED00A2A0CD00C2A0AD0042A10D0062A45
:101F60000ED0092A0CD00B2A0AD0022A0DD028E064
:101F70001F2B0CD30C2A05D101221346401C20E054
:101F80001E2B04D30123521C1BE01C2B02D203F195
:101F9000010316E011D183B29E0710D16426B3FB72
:101FA000F6F706FB173636B94FF4C876B3FBF6F7EB
:101FB00006FB17331BB91D2303E01D2B01D10322A0
:101FC00001236D1C8D42BAD3D1B2E0736173DAB2D2
:101FD000A27300F04FF82073BDE8F08170B504469D
:101FE000FEF71AFB05464FF47A7606E0FEF714FB7F
:101FF000401BB04201D9032070BD206840688006B4
:10200000F4D52068416841F010014160002070BDA6
:1020100070B504460068416821F010014160FEF788
:10202000FBFA05464FF47A7607E000BFFEF7F4FAB4
:10203000401BB04201D9032070BD20684068800673
:10204000F4D5002070BD0168086A496A89B241EA86
:1020500000407047006881698AB2C1698BB28169AA
:1020600089B28A4203D0C06961F31F40704743EAD6
:1020700002407047F0B56424C1EBC1030927A500F5
:10208000072603EB01130329B3FBF7F100F5FA6010
:10209000114401440AD2401EB0FBF4F201EB90015E
:1020A000B0FBF5F0891A0844001D08E0B0FBF4F21B
:1020B00001EB9001B0FBF5F0891A0844801CB0FBDD
:1020C000F6F106FB1100C0B2F0BD70B50D46064634
:1020D0000024FFF783FF48B93168280C0862316893
:1020E000A8B248623046FFF793FF00B101242046B2
:1020F00070BD70B50D4606460024FFF76FFF48B966
:102100003168280C88613168A8B2C8613046FFF791
:102110007FFF00B10124204670BD704701464FF497
:10212000806301220148FFF76FBB0000A40000207C
:10213000FEF70CBC70B594B028216846FEF744F851
:1021400014210AA8FEF740F8002501240F951195E7
:10215000052012950090CDE9025410954FF480307F
:10216000019002260494CDE907604FF4E010099035
:102170006846FEF72DFE08B172B6FEE70F20CDE9E6
:102180000A064FF48060CDE90C5002210AA80E9592
:10219000FEF742FD08B172B6FEE74FF48070CDE95C
:1021A0000F400FA8FEF7C2FC002801D072B6FEE770
:1021B00014B070BD7047000010B5002205490648F4
:1021C000FEF7BDFF03490022BDE81040C91C0248CC
:1021D000FEF78EBF330000209000002010B5406A4B
:1021E0000021C185C184FFF765F910BD01680C317C
:1021F00051E8002F22F4907241E80023002BF5D122
:102200000168143151E8002F22F0010241E8002357
:10221000002BF5D1016B012909D101680C3151E87E
:10222000002F22F0100241E80023002BF5D12021DD
:1022300080F8421000210163704708B590F8421001
:10224000222901D0022008BD82684FF480539A42AF
:1022500001D1016921B1816A9A421BD04AB10AE0D9
:102260000268816A5268C2F308020A80816A891C86
:1022700008E0026972B10268526802F07F020A70D7
:10228000816A491C8162C18D491E0904090CC185FE
:1022900003D01BE002685268F1E70168CA6822F0C7
:1022A0002002CA600168CA6822F48072CA600168AC
:1022B0004A6922F001024A61202180F8421000217F
:1022C0004163026B012A03D0FFF7F6FA002008BD34
:1022D000016301680C3151E8002F22F0100241E83F
:1022E0000023002BF5D101680A68D20602D50A68DE
:1022F00049680091818DFFF7DCF8E7E770B5044687
:1023000000680169E26821F44051114301612169CB
:10231000A0680843616908432168CA6841F20C63F8
:102320009A430243CA6020684169A26921F440715E
:10233000114341611E492068884202D1FEF712FD17
:1023400001E0FEF7FFFC00EBC00101EB001260684A
:1023500064218000B2FBF0F3B3FBF1F36FF01806D9
:102360007343B2FBF0F5B2FBF0F605EB83053223C5
:1023700003EB0515B5FBF1F5B6FBF1F605F0F0053D
:1023800005EB0615B2FBF0F6B2FBF0F0B0FBF1F096
:102390006FF01802504306EB800003EB0010B0FB17
:1023A000F1F0216800F00F002844886070BD000043
:1023B000003801402DE9F843984617460D4604467B
:1023C000089E24E0701C22D0FEF726F9A0EB08003E
:1023D000B0421AD8CEB12068C168490717D5802D00
:1023E00015D0402D13D00168C94309070FD40168E7
:1023F0000025406800902046FFF7F8FE0820606442
:1024000084F840500120BDE8F8830320FBE72068F2
:10241000006835EA000004D00020B842D2D0002085
:10242000F1E70120F9E700000148FFF745B8000097
:10243000A4000020FEE70907090E002804DB00F1D4
:10244000E02080F80014704700F00F0000F1E02059
:1024500080F8141D70470000FEF780FAFFF76AFE4F
:10246000FFF7A8FBFFF794FBFFF7ECFBFFF742FC3D
:10247000FFF708FCFFF770FC0A20FDF7C1FFFFF72C
:1024800057FC394C394D04212046FEF7BBF858B1B2
:10249000002202212046FEF7BAF83448FFF73EFE3C
:1024A0002878FF2811D044E03220FDF7A9FF04214D
:1024B0002046FEF7A7F80028E5D1FFF739FC0122F6
:1024C00002212046FEF7A3F8DDE7FFF775FE284E50
:1024D00004230121F278032002F5FA62FFF7BAFC27
:1024E0007278022305210320FFF7B4FCB27802239F
:1024F00007210320FFF7AEFC1E4E02230121327894
:102500000420FFF7A7FC1CA203210420FFF7C3FC53
:102510000421727802230846FFF79CFC16A20621CC
:102520000420FFF7B8FCB278022307210420FFF74C
:1025300091FC012111A20846FFF7ADFC08232A787F
:1025400006210120FFF764FC0EA201210220FFF703
:10255000A2FC01210548FDF79BFE02460823052148
:102560000220FFF755FC8EE7000801400000002024
:1025700036000020330000203A00000044617461FE
:102580003A0000004352433A0000000001020203F7
:102590000405060708090A0B0C0D0E0F10100102A6
:1025A00002030405060708090A0B0C0D0E0F101094
:1025B00000000000000000000102030406070809F3
:1025C0000000000001020304000000000000000001
:1025D0000000000000000000000000F80000000003
:1025E000000000333000000000100C06100C060044
:1025F000000000000000000040C07840C0784000AB
:10260000043F04043F040400007088FC083000000C
:10261000001820FF211E0000F008F000E018000064
:1026200000211C031E211E0000F00888700000001D
:102630001E2123241927211010160E00000000006F
:102640000000000000000000000000E0180402008C
:10265000000000071820400000020418E0000000FD
:102660000040201807000000404080F080404000FB
:102670000202010F01020200000000F00000000051
:102680000101011F01010100000000000000000025
:1026900080B070000000000000000000000000009A
:1026A0000001010101010101000000000000000023
:1026B00000303000000000000000000080601804BE
:1026C000006018060100000000E010080810E0009B
:1026D000000F102020100F00001010F80000000064
:1026E0000020203F202000000070080808887000AB
:1026F000003028242221300000300888884830002B
:102700000018202020110E000000C02010F800004A
:1027100000070424243F240000F8088888080800E3
:102720000019212020110E0000E0108888180000F8
:10273000000F112020110E0000380808C8380800CA
:102740000000003F0000000000708808088870004A
:10275000001C222121221C0000E010080810E000CB
:102760000000312222110F00000000C0C000000054
:102770000000003030000000000000800000000079
:102780000000806000000000000080402010080071
:10279000000102040810200040404040404040003A
:1027A0000404040404040400000810204080000015
:1027B0000020100804020100007048080808F0001A
:1027C0000000003036010000C030C828E810E000EA
:1027D0000718272423140B000000C038E000000075
:1027E000203C23020227382008F8888888700000DF
:1027F000203F202020110E00C030080808083800B3
:10280000071820202010080008F808080810E00029
:10281000203F202020100F0008F88888E8081000CA
:10282000203F20202320180008F88888E80810009E
:10283000203F200003000000C030080808380000D6
:1028400007182020221E020008F808000008F808D7
:10285000203F210101213F20000808F8080800005E
:102860000020203F2020000000000808F808080091
:10287000C08080807F00000008F888C02818080009
:10288000203F20012638200008F808000000000042
:10289000203F20202020300008F8F800F8F8080039
:1028A000203F003F003F200008F830C00008F80833
:1028B000203F200007183F00E01008080810E00043
:1028C0000F10202020100F0008F808080808F0005A
:1028D000203F210101010000E01008080810E0007D
:1028E0000F18242438504F0008F888888888700012
:1028F000203F2000030C30200070880808083800B2
:102900000038202121221C00180808F808081800A7
:102910000000203F2000000008F808000008F80828
:10292000001F202020201F000878880000C83808D9
:10293000000007380E010000F80800F80008F80051
:10294000033C0700073C03000818688080681808EB
:1029500020302C03032C30200838C800C838080069
:102960000000203F2000000010080808C8380800B8
:102970002038262120201800000000FE020202005C
:102980000000007F40404000000C30C0000000000C
:10299000000000010638C00000020202FE00000034
:1029A000004040407F0000000000040202020400DA
:1029B0000000000000000000000000000000000017
:1029C00080808080808080800002020400000000FF
:1029D00000000000000000000000808080800000F7
:1029E0000019242222223F2008F8008080000000E5
:1029F000003F112020110E000000008080800000A8
:102A0000000E112020201100000000808088F800B6
:102A1000000E112020103F200000808080800000E8
:102A2000001F222222221300008080F0888888184C
:102A30000020203F20200000000080808080800057
:102A4000006B94949493600008F8008080800000EC
:102A5000203F210000203F200080989800000000C7
:102A60000020203F202000000000008098980000F7
:102A700000C08080807F000008F800008080800017
:102A8000203F24022D302000000808F8000000003C
:102A90000020203F202000008080808080808000F7
:102AA000203F20003F20003F808000808080000089
:102AB000203F210000203F20000080808080000017
:102AC000001F202020201F00808000808000000048
:102AD00080FFA12020110E00000000808080800077
:102AE000000E112020A0FF80808080008080800068
:102AF00020203F2120000100000080808080800095
:102B00000033242424241900008080E08080000009
:102B10000000001F20200000808000000080800056
:102B2000001F202020103F208080800000808080B7
:102B300000010E3008060100808000800080808047
:102B40000F300C030C300F0000808000808080006C
:102B50000020312E0E312000808080000080808097
:102B600080818E7018060100008080808080800047
:102B70000021302C2221300000000000807C020265
:102B800000000000003F404000000000FF00000087
:102B900000000000FF0000000002027C8000000036
:102BA0000040403F00000000000601010202040452
:102BB0000000000000000000D82B000800000020EA
:102BC0003C00000028010008142C00083C000020F4
:102BD000140700004401000800000000000000008D
:102BE00000000000010000001000000000000000D4
:102BF00000127A00AED580A83FD30040A1C8DA12F7
:102C000081CFD9F1DB40A4A68D14AF0000000000F5
:042C100000000000C0
:04000005080000ED02
:00000001FF
