:020000040800F2
:1000000048070020890100084F100008750F0008FC
:100010004D1000088F020008331200080000000095
:100020000000000000000000000000005310000865
:10003000A902000800000000511000085510000837
:10004000A3010008A3010008A3010008A301000800
:10005000A3010008A3010008A3010008A3010008F0
:10006000A3010008A3010008A3010008A3010008E0
:10007000A3010008A3010008910200089D020008E6
:10008000A3010008A3010008A3010008A3010008C0
:10009000A3010008A3010008A3010008A3010008B0
:1000A000A3010008A3010008A3010008A3010008A0
:1000B000A3010008A3010008A3010008A301000890
:1000C000A3010008A3010008A3010008A301000880
:1000D000A3010008A3010008A3010008A301000870
:1000E000A3010008A3010008A301000800F002F822
:1000F00000F03AF80AA090E8000C82448344AAF188
:100100000107DA4501D100F02FF8AFF2090EBAE885
:100110000F0013F0010F18BFFB1A43F0010318473B
:10012000E011000000120000103A24BF78C878C126
:10013000FAD8520724BF30C830C144BF04680C60ED
:10014000704700000023002400250026103A28BF35
:1001500078C1FBD8520728BF30C148BF0B60704739
:100160001FB51FBD10B510BD00F058F81146FFF7C0
:10017000F7FF01F06FF800F076F803B4FFF7F2FF35
:1001800003BC00F07DF8000009488047094800479B
:10019000FEE7FEE7FEE7FEE7FEE7FEE7FEE7FEE737
:1001A000FEE7FEE704480549054A064B7047000094
:1001B000B7100008ED0000084801002048070020A3
:1001C00048030020480300204FF0000200B513460A
:1001D00094469646203922BFA0E80C50A0E80C5067
:1001E000B1F12001BFF4F7AF090728BFA0E80C5018
:1001F00048BF0CC05DF804EB890028BF40F8042B11
:1002000008BF704748BF20F8022B11F0804F18BF7D
:1002100000F8012B7047704770477047754600F033
:100220002BF8AE4605006946534620F00700854688
:1002300018B020B5FFF7B6FFBDE820404FF000062C
:100240004FF000074FF000084FF0000B21F00701BE
:10025000AC46ACE8C009ACE8C009ACE8C009ACE801
:10026000C0098D46704710B50446AFF300802046A4
:10027000BDE81040FFF781BF00487047E80000204C
:1002800001491820ABBEFEE7260002007047FEE7DA
:10029000014800F049B80000A4000020014800F027
:1002A00043B8000060000020704772B6FEE730B52A
:1002B0000223437103689C6844F001049C6000239E
:1002C00004E0056851F823402C605B1C9342F8D38E
:1002D0000168096801224271084630BD10B504006A
:1002E00002D0607910B106E0012010BD002020711D
:1002F000204600F005F801206071002010BD0000CC
:1003000008B500680649884208D10648416941F0AD
:1003100040014161406900F04000009008BD0000CC
:1003200000300240001002402DE9F05FC16B0C6804
:1003300001680B68D0F840C0042202FA0CF2494D63
:10034000DFF824A1494E4A4FDFF828B1DFF828E151
:1003500022422CD05A072AD50A68920603D40A688A
:1003600022F004020A600168A94201D1042219E0C6
:10037000514501D1402215E0B14202D14FF48062D3
:1003800010E0B94202D14FF480420BE0594502D14E
:100390004FF4802206E0714502D14FF4800201E063
:1003A0004FF080622F4908394A60C16A3BE04FF044
:1003B000020808FA0CF818EA040F4FF000094FF091
:1003C000010235D05FEA837832D50B689B0605D4ED
:1003D0000B6823F00A030B6080F821200168A94212
:1003E00001D1022219E0514501D1202215E0B1428C
:1003F00002D14FF4007210E0B94202D14FF4005222
:100400000BE0594502D14FF4003206E0714502D1AC
:100410004FF4001201E04FF00072124908394A60AF
:1004200080F82090816A00291AD0BDE8F05F084763
:10043000082505FA0CF5254212D01B0710D50B68CC
:1004400023F00E030B6090F84010C36B02FA01F129
:100450005960826380F8212080F82090016BE2E7E8
:10046000BDE8F09F080002401C000240300002403E
:1004700044000240580002406C00024030B528B3EE
:1004800008C8134914221944B1FBF2F18900C16371
:1004900010498163022141771A6843F6F0718A435B
:1004A000D0E900142143D0E902452C4321430469DB
:1004B0002143446921438469214311431960002188
:1004C0004163012242770177084630BD012030BDEB
:1004D000F8FFFDBF000002402DE9F84FDFF8B891AA
:1004E0000024A9F1040B23460F2709F1040AABF1FC
:1004F000040EC9E00125A5402A40AA427DD1674EDD
:10050000D1F804C0ACEB0608B44532D014DCBCF121
:10051000030F3AD009DCBCF1000F2AD0BCF1010F67
:100520001CD0BCF1020F31D11DE0BCF1110F17D06E
:10053000BCF1120F2AD119E0B8F5881F19D006DCDA
:10054000B8F5803F15D0B8F5801F1FD111E0B8F580
:10055000001F0ED0B8F5041F18D10AE0CB6815E0D3
:10056000CB681B1D12E0CB6808330FE0CB680C335F
:100570000CE08B682BB1012B4FF0080303D04561D1
:1005800004E0042302E0056100E00023FF2A01D813
:10059000064601E000F104064FEA840501D9A5F101
:1005A0002005D6F8008007FA05FC28EA0C0803FAB3
:1005B00005F548EA0508C6F800804D68ED0062D5EB
:1005C000374DAE6946F00106AE61AD6924F0030611
:1005D00005F001050095334D06EB050CDCF80850DD
:1005E000A607360F07FA06F825EA0805DFF8B880EF
:1005F000404503D14FF0000817E044E0DFF8AC803D
:10060000404502D14FF001080FE0DFF8A4804045DB
:1006100002D14FF0020808E0DFF89880404502D18F
:100620004FF0030801E04FF0040808FA06F848EA22
:100630000508CCF808804D68D9F80060ED024D46F9
:1006400001D5164300E096432E604D68DAF800604D
:10065000AD02554601D5164300E096432E604D6825
:10066000DBF80060AD035D4601D5164300E096431C
:100670002E604D68DEF80060ED03754601D5164327
:1006800000E096432E60641C0D682A46E5407FF426
:1006900031AFBDE8F88F00000804014000001110E0
:1006A000001002400000014000080140000C014021
:1006B00000100140001401400148806870470000AC
:1006C0000800002002488168027811448160704768
:1006D00008000020074810B5016841F010010160D2
:1006E000032000F075F80F2000F006F800F024F861
:1006F000002010BD0020024070B50D4D04464FF49F
:100700007A712878B1FBF0F00A490968B1FBF0F082
:1007100000F0DCFA48B9102C07D200222146501E06
:1007200000F036F800206C6070BD012070BD000044
:1007300008000020140000200C4808B5816941F031
:1007400001018161816901F001010091C16941F0FC
:100750008051C161C06900F0805000900448416838
:1007600021F0E06141F00071416008BD00100240DD
:1007700000000140002809DB00F01F020121914028
:100780004009800000F1E020C0F80011704700002F
:10079000F0B40E4B1B680C46C3F30223C3F10705EC
:1007A000042D00D90425191D072901D2002300E0DA
:1007B000DB1E012606FA05F1491E214099409E40A4
:1007C000761E16403143F0BC00F034BD0CED00E065
:1007D000064900F0070208684FF6FF03184040EA98
:1007E0000220034A10430860704700000CED00E04F
:1007F0000000FA052DE9F0470F46050061D0434E91
:10080000306800F00700B84209D2306820F00700D5
:1008100038433060306800F00700B84251D1286892
:100820003B4C810712D5400703D5606840F4E06077
:1008300060602878000703D5606840F4605060600D
:100840006068A96820F0F000084360602878C0075D
:1008500028D06868012810D02168022810D08907A4
:1008600000292EDA616821F0030101436160FFF77E
:1008700023FF804641F288390DE021688903EFE7C4
:100880008901EDE7FFF718FFA0EB0801494502D900
:100890000320BDE8F0876068696800F00C00B0EBE9
:1008A000810FEFD1306800F00700B8420BD93068F3
:1008B00020F0070038433060306800F00700B8428D
:1008C00001D00120E5E72878400705D56068E96890
:1008D00020F4E060084360602878000706D560686F
:1008E000296920F4605040EAC100606000F038F8E7
:1008F0006168084AC1F30311515CC84006490860A9
:1009000006480068FFF7F8FE0020C2E7002002401A
:1009100000100240E6120008140000200C00002025
:100920000448054900684968044AC1F30221515C42
:10093000C84070471400002000100240F612000862
:100940000448054900684968044AC1F3C221515C62
:10095000C84070471400002000100240F612000842
:100960000E4A51680E4801F00C03042B11D0082BDD
:100970000FD10C48C1F38343C903C05C0AD5516849
:10098000084AC1F34041921E515C054A5043B0FBF6
:10099000F1F07047044948437047000000100240DE
:1009A00000127A00D612000800093D002DE9F84F28
:1009B000040070D02078C04DC00749D06868C0F3EB
:1009C0008100012807D06868C0F38100022809D19E
:1009D0006868C00306D52868800339D56068002898
:1009E000E7D035E06068B0F5803F0BD010B1B0F5CE
:1009F000A02F11D0286820F480302860286820F4C7
:100A0000802002E0286840F480302860606890B15F
:100A1000FFF752FE06460AE0286840F4802028606E
:100A2000F0E700BFFFF748FE801B642873D82868F2
:100A30008003F7D50CE0FFF73FFE064605E000BF58
:100A4000FFF73AFE801B6428F0D828688003F7D4AB
:100A500020789A4E80074FF001094FF0000839D5F1
:100A6000686810F00C0F07D06868C0F38100022896
:100A700009D16868C00306D42868800714D52069A6
:100A8000012808D110E02069B0B1C6F80090FFF746
:100A900013FE074605E00AE1FFF70EFEC01B022821
:100AA000C4D828688007F7D52868616920F0F80065
:100AB00040EAC10028600DE0C6F80080FFF7FCFDA9
:100AC000074604E0FFF7F8FDC01B022823D828687A
:100AD0008007F7D4207800072CD57948A169D9B1CF
:100AE000C0F80090FFF7E8FD074604E0FFF7E4FDDB
:100AF000C01B02280FD8686A8007F7D571484FF4E9
:100B0000FA510068B0FBF1F0009000BF0098411E60
:100B10000091FAD20EE080E0C0F80080FFF7CCFD33
:100B2000074604E0FFF7C8FDC01B022875D8686AB5
:100B30008007F7D42078400760D5E8690027C00017
:100B400008D4E86940F08050E861E869012700F0C6
:100B5000805000905C480168C90513D40168834641
:100B600041F480710160FFF7A7FD824606E000BFF7
:100B7000FFF7A2FDA0EB0A0064284ED8DBF80000C6
:100B8000C005F5D5E06801280AD008B1052813D0C2
:100B9000286A20F001002862286A20F0040002E0A0
:100BA000286A40F001002862E06841F2883B98B171
:100BB000FFF782FD82460BE0286A40F004002862BD
:100BC000EEE700BFFFF778FDA0EB0A0159455AD8C0
:100BD000286A8007F6D50CE0FFF76EFD824605E037
:100BE000FFF76AFDA0EB0A0159454CD8286A800737
:100BF000F6D41FB1E86920F08050E861E06988B35D
:100C00006968C1F38101022944D00228C6F86080D6
:100C100004D0FFF751FD044638E034E0FFF74CFD07
:100C2000074604E0FFF748FDC01B02282BD82868C0
:100C30008001F7D4206AB0F5803F05D16868A168CB
:100C400020F4003008436860D4E90801084369686B
:100C500021F4741108436860C6F86090FFF72CFD1A
:100C6000044606E025E000BFFFF726FD001B022832
:100C700009D828688001F7D51BE000BFFFF71CFDED
:100C8000001B022802D90320BDE8F88F28688001E4
:100C9000F4D40EE00128F7D06868226A00F48031AD
:100CA000914204D1616A00F47010884201D00120A1
:100CB000EAE70020E8E7000000100240000042429E
:100CC00080044242140000200070004010B5401E15
:100CD000B0F1807F01D3012010BD4FF0E0246061AE
:100CE0000F21601700F0A6FA0020A0610720206104
:100CF000002010BD70B5040004D094F84100002518
:100D000010B106E0012070BD84F84050204600F08C
:100D100023F8242084F841002068C16821F40051A0
:100D2000C160204600F0F0F92068016921F490418B
:100D300001612068416921F02A0141612068C16890
:100D400041F40051C1606564202084F8410084F8BA
:100D500042006563002070BDF0B585B000240646F2
:100D600000940194029403940068294988424CD16C
:100D70002848816941F480418161816901F48041A1
:100D80000491816941F0040181618069224D00F084
:100D9000040004904FF400700090022001900320A2
:100DA000039069462846FFF797FB2815CDE9000414
:100DB000694628460294FFF78FFB194D1748802794
:100DC000C5E90004C5E902472C616C61AC612846A5
:100DD000EC61FFF753FB08B1FFF767FAF5636E624A
:100DE0000F4D0E484435143801C5102091C50C48EC
:100DF00045F8104944306C61AC61EC61FFF73EFB93
:100E000008B1FFF752FAB5636E6205B0F0BD00009D
:100E10000038014000100240000801405800024024
:100E2000600000202DE9F84F044690F842009A46F1
:100E300016460D46202802D00220BDE8F88FB5B135
:100E4000AEB100206064222184F842102063FFF7D5
:100E500033FCA6858146E685A0684FF4805820279C
:100E6000404501D1206920B12E46002529E001200E
:100E7000E3E7002625E04B46002220212046CDF85E
:100E800000A000F09DF918B184F842700320D4E767
:100E900026B1A06840451AD038B108E02068406803
:100EA000C0F3080025F8020B08E0206978B120683B
:100EB000406800F07F0000BF06F8010BE08D401E87
:100EC000E085E08D0028D6D184F84270B5E720682F
:100ED0004068F1E72DE9F843044690F84100984650
:100EE00016460D46202802D00220BDE8F88385B1C1
:100EF0007EB100206064212084F84100FFF7DCFB14
:100F0000A6848146E684A0682027B0F5805F02D0E1
:100F100003E00120E9E7206910B12E4600250EE02C
:100F200000260CE08021204600F04AF9A8B9C6B19D
:100F300016F8010B21684860E08C401EE084E08CCC
:100F40004B464FF00002CDF800800028EAD14FF068
:100F50004001204600F034F940B184F8417003208C
:100F6000C3E735F8020BC0F30800E3E784F84170EB
:100F70000020BAE7FEE70000074910B50548086001
:100F80000846FFF7ABF9002803D0BDE81040FFF793
:100F90008CB910BD00300240000000200D4808B59B
:100FA000416941F0010141614069002200F0010006
:100FB000009011460E20FFF7EBFB0E20FFF7DAFB47
:100FC000002211460F20FFF7E3FBBDE808400F2089
:100FD000FFF7D0BB001002400D4808B5816941F011
:100FE00010018161816901F010010091816941F076
:100FF00020018161816901F020010091816941F046
:1010000004018161806900F00400009008BD0000C7
:10101000001002400C4810B50A4901604FF4E1315C
:101020004160002181600C22C160C0E9041281612D
:10103000C161FFF75FFE002803D0BDE81040FFF755
:1010400034B910BD0038014018000020FEE7FEE76B
:1010500070477047FFF736BB30B58FB02821684620
:10106000FFF7B2F814210AA8FFF7AEF8012108042F
:10107000CDE900100024029402250491CDE9075027
:101080004FF4E01009906846FFF790FC08B172B683
:10109000FEE70F20CDE90A054FF48060CDE90C4052
:1010A00002210AA80E94FFF7A5FB002801D072B612
:1010B000FEE70FB030BD704701680C3151E8002FDA
:1010C00022F4907241E80023002BF5D1016814311D
:1010D00051E8002F22F0010241E80023002BF5D156
:1010E000016B012909D101680C3151E8002F22F070
:1010F000100241E80023002BF5D1202180F8421096
:10110000002101637047000070B504460068016962
:10111000E26821F44051114301612169A06808434C
:10112000616908432168CA6841F20C639A4302432B
:10113000CA6020684169A26921F44071114341618C
:101140001E492068884202D1FFF7FAFB01E0FFF751
:10115000E7FB00EBC00101EB001260686421800036
:10116000B2FBF0F3B3FBF1F36FF018067343B2FB7D
:10117000F0F5B2FBF0F605EB8305322303EB051522
:10118000B5FBF1F5B6FBF1F605F0F00505EB06153C
:10119000B2FBF0F6B2FBF0F0B0FBF1F06FF018022A
:1011A000504306EB800003EB0010B0FBF1F0216828
:1011B00000F00F002844886070BD00000038014036
:1011C0002DE9F843984617460D460446089E24E04C
:1011D000701C22D0FFF770FAA0EB0800B0421AD8BA
:1011E000CEB12068C168490717D5802D15D0402D94
:1011F00013D00168C94309070FD40168002540686E
:1012000000902046FFF758FF0820606484F84050A3
:101210000120BDE8F8830320FBE72068006835EA79
:10122000000004D00020B842D2D00020F1E7012015
:10123000F9E7FEE70907090E002804DB00F1E020CA
:1012400080F80014704700F00F0000F1E02080F8F3
:10125000141D70470EB5FFF73DFAFFF7FDFEFFF7CF
:10126000BBFEFFF79BFEFFF787FEFFF7D3FE01AD46
:101270004FF0FF342346042269461448FFF7D2FD9D
:101280009DF803009DF800109DF8022000EB01601E
:101290009DF80110090401EB02210844029001228B
:1012A00002A90B48FFF703F85FF00001C1F1030248
:1012B000491CA854000A89B20429F7D32346042202
:1012C00001A90248FFF706FED4E70000180000203D
:1012D00000000020010202030405060708090A0BAA
:1012E0000C0D0E0F101000000000000000000102A5
:1012F00003040607080900000000010203040000BF
:101300002013000800000020180000002801000839
:1013100038130008180000203007000044010008BE
:1013200000000000000000000100000010000000AC
:081330000000000000127A0029
:04000005080000ED02
:00000001FF
