:020000040800F2
:10000000E806002089010008DF1200083512000808
:10001000DD120008CF020008F716000800000000FB
:10002000000000000000000000000000F7140008BD
:10003000D102000800000000E1120008F9140008D5
:10004000A3010008A3010008A3010008A301000800
:10005000A3010008A3010008A3010008A3010008F0
:10006000A3010008A3010008A3010008A3010008E0
:10007000A3010008A3010008A3010008A3010008D0
:10008000A3010008A3010008A3010008A3010008C0
:10009000A3010008A3010008A3010008A3010008B0
:1000A000A3010008A3010008A3010008A3010008A0
:1000B000A3010008A3010008A3010008A301000890
:1000C000A3010008A3010008A3010008A301000880
:1000D000A3010008A3010008A3010008A301000870
:1000E000A3010008A3010008A301000800F002F822
:1000F00000F03AF80AA090E8000C82448344AAF188
:100100000107DA4501D100F02FF8AFF2090EBAE885
:100110000F0013F0010F18BFFB1A43F0010318473B
:10012000C8170000E8170000103A24BF78C878C14B
:10013000FAD8520724BF30C830C144BF04680C60ED
:10014000704700000023002400250026103A28BF35
:1001500078C1FBD8520728BF30C148BF0B60704739
:100160001FB51FBD10B510BD00F077F81146FFF7A1
:10017000F7FF01F0D1FA00F095F803B4FFF7F2FFB2
:1001800003BC00F09DF8000009488047094800477B
:10019000FEE7FEE7FEE7FEE7FEE7FEE7FEE7FEE737
:1001A000FEE7FEE704480549054A064B7047000094
:1001B0007D150008ED000008E8000020E80600209A
:1001C000E8020020E802002010B5431C02E010F80D
:1001D000011B71B18107FAD14FF0013202C88C1AAC
:1001E0008C4314EAC211F9D0C01A0A0603D0C01E0B
:1001F00010BDC01A10BD0A0401D0801E10BD090236
:10020000FCD0401E10BD4FF0000200B513469446CE
:100210009646203922BFA0E80C50A0E80C50B1F15E
:100220002001BFF4F7AF090728BFA0E80C5048BF72
:100230000CC05DF804EB890028BF40F8042B08BF10
:10024000704748BF20F8022B11F0804F18BF00F80C
:10025000012B7047704770477047754600F02CF8C7
:10026000AE4605006946534620F00700854618B0A3
:1002700020B5FFF797FFBDE820404FF000064FF094
:1002800000074FF000084FF0000B21F00701AC46CB
:10029000ACE8C009ACE8C009ACE8C009ACE8C009EA
:1002A0008D46704710B50446AFF300802046BDE888
:1002B0001040FFF762BF0000004870478400002034
:1002C00001491820ABBEFEE7260002007047FEE79A
:1002D000704772B6FEE700002DE9F84FDFF8B891DD
:1002E0000024A9F1040B23460F2709F1040AABF1FE
:1002F000040EC9E00125A5402A40AA427DD1674EDF
:10030000D1F804C0ACEB0608B44532D014DCBCF123
:10031000030F3AD009DCBCF1000F2AD0BCF1010F69
:100320001CD0BCF1020F31D11DE0BCF1110F17D070
:10033000BCF1120F2AD119E0B8F5881F19D006DCDC
:10034000B8F5803F15D0B8F5801F1FD111E0B8F582
:10035000001F0ED0B8F5041F18D10AE0CB6815E0D5
:10036000CB681B1D12E0CB6808330FE0CB680C3361
:100370000CE08B682BB1012B4FF0080303D04561D3
:1003800004E0042302E0056100E00023FF2A01D815
:10039000064601E000F104064FEA840501D9A5F103
:1003A0002005D6F8008007FA05FC28EA0C0803FAB5
:1003B00005F548EA0508C6F800804D68ED0062D5ED
:1003C000374DAE6946F00106AE61AD6924F0030613
:1003D00005F001050095334D06EB050CDCF80850DF
:1003E000A607360F07FA06F825EA0805DFF8B880F1
:1003F000404503D14FF0000817E044E0DFF8AC803F
:10040000404502D14FF001080FE0DFF8A4804045DD
:1004100002D14FF0020808E0DFF89880404502D191
:100420004FF0030801E04FF0040808FA06F848EA24
:100430000508CCF808804D68D9F80060ED024D46FB
:1004400001D5164300E096432E604D68DAF800604F
:10045000AD02554601D5164300E096432E604D6827
:10046000DBF80060AD035D4601D5164300E096431E
:100470002E604D68DEF80060ED03754601D5164329
:1004800000E096432E60641C0D682A46E5407FF428
:1004900031AFBDE8F88F00000804014000001110E2
:1004A000001002400000014000080140000C014023
:1004B00000100140001401400148806870470000AE
:1004C000040000200248816802781144816070476E
:1004D00004000020074810B5016841F010010160D8
:1004E000032000F067F80F2000F006F800F024F871
:1004F000002010BD0020024070B50D4D04464FF4A1
:100500007A712878B1FBF0F00A490968B1FBF0F084
:1005100000F069FD48B9102C07D200222146501E78
:1005200000F028F800206C6070BD012070BD000054
:1005300004000020100000200C4808B5816941F03B
:1005400001018161816901F001010091C16941F0FE
:100550008051C161C06900F080500090044841683A
:1005600021F0E06141F00071416008BD00100240DF
:1005700000000140F0B40E4B1B680C46C3F302238D
:10058000C3F10705042D00D90425191D072901D23F
:10059000002300E0DB1E012606FA05F1491E21407A
:1005A00099409E40761E16403143F0BC01F0A4B83D
:1005B0000CED00E0064900F0070208684FF6FF0363
:1005C000184040EA0220034A1043086070470000C8
:1005D0000CED00E00000FA050149012008627047B7
:1005E00000000E4210B501460020234C012922D004
:1005F000022939D010291DD161682268D20119D58C
:100600001E48C1F38342C903805C0AD561681B4A56
:10061000C1F34041921E515C194AB2FBF1F14843CB
:1006200001E0184948436168490203D440000321AE
:10063000B0FBF1F010BD226AC2F30121012903D100
:10064000920701D5C80310BD022905D1626A92073D
:1006500002D549F6404010BD0329FCD12168890329
:10066000F9D54FF2244010BD00F02AF96168C1F3BA
:100670008131491C4900DBE700100240C018000826
:1006800000127A0000093D002DE9F8430546007884
:10069000354CC00754D0E0690026C00008D4E0699A
:1006A00040F08050E061E069012600F08050009049
:1006B0002E480168C90512D40168804641F4807152
:1006C0000160FFF7F9FE074605E000BFFFF7F4FE03
:1006D000C01B642823D8D8F80000C005F6D5206ACE
:1006E00010F4407021D0A98801F4407181421CD0DF
:1006F000206A1F49012220F440700A6000220A602B
:100700002062C00711D0FFF7D7FE074641F28838B4
:1007100008E000BFFFF7D0FEC11B414502D903200E
:10072000BDE8F883206A8007F4D5206A696820F460
:100730004070084320621EB1E06920F08050E06103
:100740002878800705D56068A96820F440400843F0
:1007500060602878C00605D56068E96820F48000EC
:10076000084360600020DBE700100240007000409A
:10077000400442422DE9F0470F46050061D0434E48
:10078000306800F00700B84209D2306820F0070056
:1007900038433060306800F00700B84251D1286813
:1007A0003B4C810712D5400703D5606840F4E060F8
:1007B00060602878000703D5606840F4605060608E
:1007C0006068A96820F0F000084360602878C007DE
:1007D00028D06868012810D02168022810D0890725
:1007E00000292EDA616821F0030101436160FFF7FF
:1007F00063FE804641F288390DE021688903EFE706
:100800008901EDE7FFF758FEA0EB0801494502D941
:100810000320BDE8F0876068696800F00C00B0EB69
:10082000810FEFD1306800F00700B8420BD9306873
:1008300020F0070038433060306800F00700B8420D
:1008400001D00120E5E72878400705D56068E96810
:1008500020F4E060084360602878000706D56068EF
:10086000296920F4605040EAC100606000F038F867
:100870006168084AC1F30311515CC8400649086029
:1008800006480068FFF738FE0020C2E7002002405B
:1008900000100240D01800081000002008000020BE
:1008A0000448054900684968044AC1F30221515CC3
:1008B000C84070471000002000100240E0180008F7
:1008C0000448054900684968044AC1F3C221515CE3
:1008D000C84070471000002000100240E0180008D7
:1008E0000E4A51680E4801F00C03042B11D0082B5E
:1008F0000FD10C48C1F38343C903C05C0AD55168CA
:10090000084AC1F34041921E515C054A5043B0FB76
:10091000F1F070470449484370470000001002405E
:1009200000127A00AE18000800093D002DE9F84FCA
:10093000040070D02078C04DC00749D06868C0F36B
:100940008100012807D06868C0F38100022809D11E
:100950006868C00306D52868800339D56068002818
:10096000E7D035E06068B0F5803F0BD010B1B0F54E
:10097000A02F11D0286820F480302860286820F447
:10098000802002E0286840F480302860606890B1E0
:10099000FFF792FD06460AE0286840F480202860B0
:1009A000F0E700BFFFF788FD801B642873D8286834
:1009B0008003F7D50CE0FFF77FFD064605E000BF9A
:1009C000FFF77AFD801B6428F0D828688003F7D4ED
:1009D00020789A4E80074FF001094FF0000839D572
:1009E000686810F00C0F07D06868C0F38100022817
:1009F00009D16868C00306D42868800714D5206927
:100A0000012808D110E02069B0B1C6F80090FFF7C6
:100A100053FD074605E00AE1FFF74EFDC01B022823
:100A2000C4D828688007F7D52868616920F0F800E5
:100A300040EAC10028600DE0C6F80080FFF73CFDE9
:100A4000074604E0FFF738FDC01B022823D82868BA
:100A50008007F7D4207800072CD57948A169D9B14F
:100A6000C0F80090FFF728FD074604E0FFF724FDDB
:100A7000C01B02280FD8686A8007F7D571484FF469
:100A8000FA510068B0FBF1F0009000BF0098411EE1
:100A90000091FAD20EE080E0C0F80080FFF70CFD74
:100AA000074604E0FFF708FDC01B022875D8686AF6
:100AB0008007F7D42078400760D5E8690027C00098
:100AC00008D4E86940F08050E861E869012700F047
:100AD000805000905C480168C90513D401688346C2
:100AE00041F480710160FFF7E7FC824606E000BF39
:100AF000FFF7E2FCA0EB0A0064284ED8DBF8000008
:100B0000C005F5D5E06801280AD008B1052813D042
:100B1000286A20F001002862286A20F0040002E020
:100B2000286A40F001002862E06841F2883B98B1F1
:100B3000FFF7C2FC82460BE0286A40F004002862FE
:100B4000EEE700BFFFF7B8FCA0EB0A0159455AD801
:100B5000286A8007F6D50CE0FFF7AEFC824605E078
:100B6000FFF7AAFCA0EB0A0159454CD8286A800778
:100B7000F6D41FB1E86920F08050E861E06988B3DD
:100B80006968C1F38101022944D00228C6F8608057
:100B900004D0FFF791FC044638E034E0FFF78CFC0A
:100BA000074604E0FFF788FCC01B02282BD8286802
:100BB0008001F7D4206AB0F5803F05D16868A1684C
:100BC00020F4003008436860D4E9080108436968EC
:100BD00021F4741108436860C6F86090FFF76CFC5C
:100BE000044606E025E000BFFFF766FC001B022874
:100BF00009D828688001F7D51BE000BFFFF75CFC2F
:100C0000001B022802D90320BDE8F88F2868800164
:100C1000F4D40EE00128F7D06868226A00F480312D
:100C2000914204D1616A00F47010884201D0012021
:100C3000EAE70020E8E7000000100240000042421E
:100C4000800442421000002000700040F8B505000A
:100C50004FF0000016460C46009006D02CB1002242
:100C60006946284600F019F808B10120F8BD287B34
:100C70002070E87BE070697B6170A97BA17056B140
:100C800000F038FBE070607800F034FB6070A07812
:100C900000F030FBA0700020F8BD2DE9F047914630
:100CA0000C465FEA00084AD084B3D8F800004068D8
:100CB000400744D4404600F0BBFB4FF46162054658
:100CC000B0FBF2F1B0FBF2F302FB13503C23B0FB9C
:100CD000F3F0B5FBF2F6607002FB1650B0FBF3F2D6
:100CE00003FB1200A070182931D31820B1FBF0F7D4
:100CF000B1FBF0F200FB12102070404600F091FBB7
:100D0000411C04D0A84202D9461B02E017E04FF074
:100D1000FF36A7EB071000EB4000C0EB001005EB1F
:100D2000C0152946404600F0D2FB40B9701C01D0E6
:100D3000711900E03146404600F0B5FB10B10120CA
:100D4000BDE8F0873946404600F0DFFA00E0217048
:100D5000B9F1000F0BD0207800F0CCFA2070607849
:100D600000F0C8FA6070A07800F0C4FAA07000200B
:100D7000E6E7000070B5040003D0607C002610B1E7
:100D800005E0012070BD2674204600F03DF80220E9
:100D90006074204600F00AF9042550BB204600F09C
:100DA0000BFB30BB2068416821F007014160A0685F
:100DB00020B11448016821F0010101601148001FB1
:100DC0000168A26821F46071114301606068411CF0
:100DD00004D10120FFF706FC58B1401E2268C0F381
:100DE00003419160216880B2C860204600F0FEFA9D
:100DF00008B16574C5E7E67301206073A073607481
:100E0000002070BD306C004008B500680849884279
:100E10000DD1FFF7E1FB0748C16941F00061C161F5
:100E2000C069054900F0006000900120086008BD1D
:100E300000280040001002403C0442422DE9F041ED
:100E40000D4604003BD0C5B3207C01283AD04FF0BA
:100E5000010884F8108002206074E87872B300F012
:100E600040FAE073687800F03CFA6073A87800F00C
:100E700038FAA073C2B2617BE07B00F0E9FA20731C
:100E80002870204600F0D4FA4FF46161B0FBF1F114
:100E9000002518292DD91822B1FBF2F1A1EB01117F
:100EA00001EB4101C1EB011100EBC11631462046B7
:100EB00000F00DFB0427C8B90BE000E004E00120BE
:100EC000BDE8F0810220FBE7E07368786073A878E2
:100ED000CFE7204600F0A5FA411C0AD0B04208D264
:100EE00006490144204600F0DEFA10B1677425740B
:100EF000E5E784F8118025740020E1E780510100C6
:100F00002DE9F0410D46040024D01DB3207C0128BA
:100F100023D04FF0010884F81080022060742878F4
:100F2000EAB100F0DEF94FF4616100FB01F6687888
:100F300000F0D7F9C0EB001006EB8006A87800F0AF
:100F4000D0F935182946204600F0C1FA00260427BA
:100F500010BB0FE00120BDE8F0810220FBE74FF459
:100F6000616148436978C1EB011100EB8100A97808
:100F70004518E7E72068416821F0050141602046F7
:100F800000F04FFA411C0AD0A84208D20649014499
:100F9000204600F088FA10B167742674DAE784F806
:100FA000118026740020D6E78051010070B504003E
:100FB0000AD02068416821F008014160FFF77CFAFF
:100FC00005464FF47A7608E0012070BDFFF774FA09
:100FD000401BB04201D9032070BD20684068000763
:100FE000F4D5002070BD10B5401EB0F1807F01D354
:100FF000012010BD4FF0E02460610F21601700F068
:101000007BFB0020A06107202061002010BD70B58F
:10101000040004D094F84100002510B106E001203E
:1010200070BD84F84050204600F024F8242084F855
:1010300041002068C16821F40051C160204600F0E1
:10104000C5FA2068016921F4904101612068416975
:1010500021F02A0141612068C16841F40051C1605A
:101060006564202084F8410084F842006563002014
:1010700070BD000030B585B0002400940194029446
:10108000039400681449884224D11448816941F4CA
:1010900080418161816901F480410491816941F05D
:1010A0000401816180690E4D00F0040004904FF44A
:1010B00000700090022001900320039069462846AA
:1010C000FFF70AF92815CDE900046946284602947D
:1010D000FFF702F905B030BD0038014000100240B2
:1010E000000801402DE9F84F044690F842009A4666
:1010F00016460D46202802D00220BDE8F88FB5B173
:10110000AEB100206064222184F842102063FFF712
:10111000D3F9A6858146E685A0684FF4805820273C
:10112000404501D1206920B12E46002529E001204B
:10113000E3E7002625E04B46002220212046CDF89B
:1011400000A000F09FFA18B184F842700320D4E7A1
:1011500026B1A06840451AD038B108E02068406840
:10116000C0F3080025F8020B08E0206978B1206878
:10117000406800F07F0000BF06F8010BE08D401EC4
:10118000E085E08D0028D6D184F84270B5E720686C
:101190004068F1E72DE9F843044690F8410098468D
:1011A00016460D46202802D00220BDE8F88385B1FE
:1011B0007EB100206064212084F84100FFF77CF9B3
:1011C000A6848146E684A0682027B0F5805F02D01F
:1011D00003E00120E9E7206910B12E4600250EE06A
:1011E00000260CE08021204600F04CFAA8B9C6B1D8
:1011F00016F8010B21684860E08C401EE084E08C0A
:101200004B464FF00002CDF800800028EAD14FF0A5
:101210004001204600F036FA40B184F841700320C6
:10122000C3E735F8020BC0F30800E3E784F8417028
:101230000020BAE7FEE700000D4808B5816941F0DB
:1012400010018161816901F010010091816941F013
:1012500020018161816901F020010091816941F0E3
:1012600004018161806900F00400009008BD000065
:10127000001002400A4810B5084901604FF0FF31E4
:1012800041604FF480718160FFF774FD002803D046
:10129000BDE81040FFF71DB810BD00000028004059
:1012A000280000200C4810B50A4901604FF4E131D4
:1012B0004160002181600C22C160C0E9041281619B
:1012C000C161FFF7A4FE002803D0BDE81040FFF77E
:1012D00000B810BD003801403C000020FEE7FEE7EA
:1012E0007047010901EB810100F00F0000EB4100A4
:1012F000C0B27047002102E00A38C0B2491C0A2877
:10130000FAD2090740EA116070472DE9F04104461E
:101310000025C07B627BA37B42E0012A16D0032A12
:1013200014D0052A12D0072A10D0082A0ED00A2A73
:101330000CD00C2A0AD0042A10D0062A0ED0092A72
:101340000CD00B2A0AD0022A0DD028E01F2B0CD378
:101350000C2A05D101221346401C20E01E2B04D389
:101360000123521C1BE01C2B02D203F1010316E0E7
:1013700011D183B29E0710D16426B3FBF6F706FBAA
:10138000173636B94FF4C876B3FBF6F706FB1733BA
:101390001BB91D2303E01D2B01D1032201236D1C6A
:1013A0008D42BAD3D1B2E0736173DAB2A27300F0A6
:1013B0004FF82073BDE8F08170B50446FFF77CF864
:1013C00005464FF47A7606E0FFF776F8401BB04208
:1013D00001D9032070BD206840688006F4D52068DC
:1013E000416841F010014160002070BD70B50446B5
:1013F0000068416821F010014160FFF75DF8054683
:101400004FF47A7607E000BFFFF756F8401BB04272
:1014100001D9032070BD206840688006F4D5002003
:1014200070BD0168086A496A89B241EA00407047A4
:10143000006881698AB2C1698BB2816989B28A42C6
:1014400003D0C06961F31F40704743EA0240704710
:10145000F0B56424C1EBC1030927A500072603EBFF
:1014600001130329B3FBF7F100F5FA6011440144BD
:101470000AD2401EB0FBF4F201EB9001B0FBF5F094
:10148000891A0844001D08E0B0FBF4F201EB90015A
:10149000B0FBF5F0891A0844801CB0FBF6F106FB9E
:1014A0001100C0B2F0BD70B50D4606460024FFF72E
:1014B00083FF48B93168280C08623168A8B24862D5
:1014C0003046FFF793FF00B10124204670BD70B590
:1014D0000D4606460024FFF76FFF48B93168280C17
:1014E00088613168A8B2C8613046FFF77FFF00B15C
:1014F0000124204670BD7047FEF7E4BF70B594B07C
:1015000028216846FEF77FFE14210AA8FEF77BFE1D
:1015100000250F9509200124109500901195129532
:101520004FF4803004940694CDE901050226CDE9FC
:1015300007604FF4E01009906846FFF7F7F908B12B
:1015400072B6FEE70F20CDE90A064FF48060CDE9C0
:101550000C5002210AA80E95FFF70CF908B172B6DB
:10156000FEE74FF40070CDE90F400FA8FFF78CF8AD
:10157000002801D072B6FEE714B070BD7047016854
:101580000C3151E8002F22F4907241E80023002B27
:10159000F5D10168143151E8002F22F0010241E831
:1015A0000023002BF5D1016B012909D101680C3111
:1015B00051E8002F22F0100241E80023002BF5D162
:1015C000202180F8421000210163704770B5044665
:1015D00000680169E26821F4405111430161216909
:1015E000A0680843616908432168CA6841F20C6336
:1015F0009A430243CA6020684169A26921F440719C
:10160000114341611E492068884202D1FFF758F911
:1016100001E0FFF745F900EBC00101EB0012606843
:1016200064218000B2FBF0F3B3FBF1F36FF0180616
:101630007343B2FBF0F5B2FBF0F605EB8305322302
:1016400003EB0515B5FBF1F5B6FBF1F605F0F0057A
:1016500005EB0615B2FBF0F6B2FBF0F0B0FBF1F0D3
:101660006FF01802504306EB800003EB0010B0FB54
:10167000F1F0216800F00F002844886070BD000080
:10168000003801402DE9F843984617460D460446B8
:10169000089E24E0701C22D0FEF70EFFA0EB08008D
:1016A000B0421AD8CEB12068C168490717D5802D3D
:1016B00015D0402D13D00168C94309070FD4016824
:1016C0000025406800902046FFF759FF082060641D
:1016D00084F840500120BDE8F8830320FBE7206830
:1016E000006835EA000004D00020B842D2D00020C3
:1016F000F1E70120F9E7FEE70907090E002804DBFE
:1017000000F1E02080F80014704700F00F0000F1B5
:10171000E02080F8141D70471CB5FEF7DBFEFFF7D4
:10172000EDFEFFF789FDFFF7A5FDFFF7BBFD0020EC
:101730008DF800008DF801008DF802000122694645
:101740002148FFF7DDFB01208DF806008DF805002C
:1017500025208DF80700012201A91B48FFF76EFB29
:101760004FF0FF3423460B2218A11B48FFF712FD50
:101770001A4D2346012219491748FFF7B3FC287870
:10178000FF28F6D1164800F061F815480A3000F03D
:101790002BF813480A30FEF717FD114982B2234691
:1017A0000A310D48FFF7F6FC234601220DA10A4835
:1017B000FFF7F0FC0A48FEF707FD82B2234608490E
:1017C0000548FFF7E7FCD4E728000020496E69745C
:1017D0005F46696E697368003C00002000000020CD
:1017E000140000202000000038B50446012269469C
:1017F0001548FFF72BFA9DF8020000F00F0030307B
:1018000060729DF80210302000EB111121722E2120
:10181000E1719DF8012002F00F023032A2719DF8B3
:10182000012000EB1212627121719DF8031001F08A
:101830000F013031E1709DF8031000EB1111A17020
:1018400060703220207038BD2800002038B5044672
:10185000012269461448FFF720FA9DF8020000F0C3
:101860000F003030E0719DF80210302000EB1111B4
:10187000A1713A2161719DF8012002F00F0230320E
:1018800022719DF8012000EB1212E270A1709DF808
:10189000001001F00F01303161709DF8001000EB75
:1018A0001110207038BD0000280000200102020342
:1018B0000405060708090A0B0C0D0E0F1010010293
:1018C00002030405060708090A0B0C0D0E0F101081
:1018D00000000000000000000102030406070809E0
:1018E00000000000010203040819000800000020A5
:1018F00014000000280100081C1900081400002032
:10190000D4060000440100080000000001000000AF
:0C191000100000000000000000127A002F
:04000005080000ED02
:00000001FF
