:020000040800F2
:100000008804002005010008831500089F140008DB
:10001000811500089D010008B11A000800000000C9
:100020000000000000000000000000009B17000816
:100030009F01000800000000851500089D170008BA
:100040001F0100081F0100081F0100081F01000810
:100050001F0100081F0100081F0100081F01000800
:100060001F0100081F0100081F0100081F010008F0
:100070001F0100081F0100081F0100081F010008E0
:100080001F0100081F0100081F0100081F010008D0
:100090001F0100081F0100081F0100081F010008C0
:1000A0001F0100081F0100081F0100081F010008B0
:1000B0001F0100081F0100081F0100081F010008A0
:1000C0001F0100081F0100081F0100081F01000890
:1000D0001F010008A51A00081F0100081F010008E1
:1000E0001F0100081F0100081F010008DFF810D0E1
:1000F00000F042F800480047811C0008AFF3008080
:10010000880400200648804706480047FEE7FEE7CF
:10011000FEE7FEE7FEE7FEE7FEE7FEE7FEE7FEE7B7
:1001200021180008ED000008D2B201E000F8012B10
:10013000491EFBD270470022F6E710B513460A4667
:1001400004461946FFF7F0FF204610BD30B50B46B8
:10015000014600202022012409E021FA02F59D42F7
:1001600005D303FA02F5491B04FA02F52844151ECB
:10017000A2F10102F1DC30BD064C074D06E0E0685B
:1001800040F0010394E8070098471034AC42F6D3DE
:10019000FFF7B0FFE41C0008041D0008FEE77047ED
:1001A00072B6FEE710B590F821100022022905D0A2
:1001B0000421816380F82020012010BD01680B68B4
:1001C00023F00E030B6001680B6823F001030B6042
:1001D00090F84030C46B012101FA03F3636080F8AA
:1001E000211080F82020104610BD000010B590F8B6
:1001F00021100024022903D00421816301243DE061
:1002000001680A6822F00E020A6001680A6822F09A
:1002100001020A601A4A0168914201D1012121E0DC
:10022000174A1432914201D110211BE0144A28329E
:10023000914201D1891515E0114A3C32914201D118
:1002400089140FE00E4A5032914202D14FF48031AE
:1002500008E00B4A6432914202D14FF4801101E070
:100260004FF08071064A083A5160012180F8211050
:10027000002180F82010416B01B18847204610BD55
:10028000080002402DE9F84FDFF8B8910024A9F1E9
:10029000040B23460F2709F1040AABF1040EC9E051
:1002A0000125A5402A40AA427DD1674ED1F804C05D
:1002B000ACEB0608B44532D014DCBCF1030F3AD0E5
:1002C00009DCBCF1000F2AD0BCF1010F1CD0BCF13D
:1002D000020F31D11DE0BCF1110F17D0BCF1120F8C
:1002E0002AD119E0B8F5881F19D006DCB8F5803F8F
:1002F00015D0B8F5801F1FD111E0B8F5001F0ED042
:10030000B8F5041F18D10AE0CB6815E0CB681B1DB7
:1003100012E0CB6808330FE0CB680C330CE08B683D
:100320002BB1012B4FF0080303D0456104E00423F7
:1003300002E0056100E00023FF2A01D8064601E043
:1003400000F104064FEA840501D9A5F12005D6F88D
:10035000008007FA05FC28EA0C0803FA05F548EACC
:100360000508C6F800804D68ED0062D5374DAE69CE
:1003700046F00106AE61AD6924F0030605F0010503
:100380000095334D06EB050CDCF80850A607360F38
:1003900007FA06F825EA0805DFF8B880404503D1DA
:1003A0004FF0000817E044E0DFF8AC80404502D190
:1003B0004FF001080FE0DFF8A480404502D14FF074
:1003C000020808E0DFF89880404502D14FF00308AA
:1003D00001E04FF0040808FA06F848EA0508CCF8EE
:1003E00008804D68D9F80060ED024D4601D51643EE
:1003F00000E096432E604D68DAF80060AD02554685
:1004000001D5164300E096432E604D68DBF800608E
:10041000AD035D4601D5164300E096432E604D685E
:10042000DEF80060ED03754601D5164300E0964303
:100430002E60641C0D682A46E5407FF431AFBDE8AC
:10044000F88F000008040140000011100010024065
:100450000000014000080140000C01400010014074
:100460000014014001488068704700001800002017
:1004700002488168027811448160704718000020AA
:10048000074810B5016841F010010160032000F039
:1004900075F80F2000F006F800F024F8002010BDD9
:1004A0000020024070B50D4D04464FF47A71287853
:1004B000B1FBF0F00A490968B1FBF0F000F077FDFC
:1004C00048B9102C07D200222146501E00F036F801
:1004D00000206C6070BD012070BD0000180000207D
:1004E000240000200C4808B5816941F001018161B8
:1004F000816901F001010091C16941F08051C16140
:10050000C06900F0805000900448416821F0E0612B
:1005100041F00071416008BD001002400000014040
:10052000002809DB00F01F020121914040098000F2
:1005300000F1E020C0F8001170470000F0B40E4B4D
:100540001B680C46C3F30223C3F10705042D00D931
:100550000425191D072901D2002300E0DB1E012616
:1005600006FA05F1491E214099409E40761E16402C
:100570003143F0BC01F0AEBA0CED00E0064900F0EA
:10058000070208684FF6FF03184040EA0220034ABA
:1005900010430860704700000CED00E00000FA0511
:1005A000014901200862704700000E4210B5014663
:1005B0000020234C012922D0022939D010291DD135
:1005C00061682268D20119D51E48C1F38342C9036C
:1005D000805C0AD561681B4AC1F34041921E515CA0
:1005E000194AB2FBF1F1484301E0184948436168F8
:1005F000490203D440000321B0FBF1F010BD226A90
:10060000C2F30121012903D1920701D5C80310BD0E
:10061000022905D1626A920702D549F6404010BD11
:100620000329FCD121688903F9D54FF2244010BD7C
:1006300000F02AF96168C1F38131491C4900DBE708
:1006400000100240BC1C000800127A0000093D00A6
:100650002DE9F84305460078354CC00754D0E069D1
:100660000026C00008D4E06940F08050E061E069F5
:10067000012600F0805000902E480168C90512D470
:100680000168804641F480710160FFF7EBFE074688
:1006900005E000BFFFF7E6FEC01B642823D8D8F8AA
:1006A0000000C005F6D5206A10F4407021D0A9885A
:1006B00001F4407181421CD0206A1F49012220F4BC
:1006C00040700A6000220A602062C00711D0FFF764
:1006D000C9FE074641F2883808E000BFFFF7C2FEB6
:1006E000C11B414502D90320BDE8F883206A800779
:1006F000F4D5206A696820F44070084320621EB176
:10070000E06920F08050E0612878800705D56068B6
:10071000A96820F44040084360602878C00605D5E9
:100720006068E96820F48000084360600020DBE72F
:100730000010024000700040400442422DE9F047A2
:100740000F46050061D0434E306800F00700B84204
:1007500009D2306820F0070038433060306800F07C
:100760000700B84251D128683B4C810712D5400799
:1007700003D5606840F4E06060602878000703D526
:10078000606840F4605060606068A96820F0F00024
:10079000084360602878C00728D06868012810D016
:1007A0002168022810D0890700292EDA616821F01B
:1007B000030101436160FFF755FE804641F288392D
:1007C0000DE021688903EFE78901EDE7FFF74AFEB5
:1007D000A0EB0801494502D90320BDE8F087606815
:1007E000696800F00C00B0EB810FEFD1306800F0C9
:1007F0000700B8420BD9306820F00700384330605A
:10080000306800F00700B84201D00120E5E7287801
:10081000400705D56068E96820F4E060084360603F
:100820002878000706D56068296920F4605040EAFE
:10083000C100606000F038F86168084AC1F3031134
:10084000515CC8400649086006480068FFF72AFE68
:100850000020C2E70020024000100240CC1C00082B
:10086000240000201C000020044805490068496855
:10087000044AC1F30221515CC840704724000020A3
:1008800000100240DC1C0008044805490068496863
:10089000044AC1F3C221515CC840704724000020C3
:1008A00000100240DC1C00080E4A51680E4801F09E
:1008B0000C03042B11D0082B0FD10C48C1F3834338
:1008C000C903C05C0AD55168084AC1F34041921E71
:1008D000515C054A5043B0FBF1F07047044948436E
:1008E000704700000010024000127A00AA1C0008A5
:1008F00000093D002DE9F84F040070D02078C04D6C
:10090000C00749D06868C0F38100012807D0686833
:10091000C0F38100022809D16868C00306D52868A1
:10092000800339D560680028E7D035E06068B0F50D
:10093000803F0BD010B1B0F5A02F11D0286820F463
:1009400080302860286820F4802002E0286840F485
:1009500080302860606890B1FFF784FD06460AE0A9
:10096000286840F480202860F0E700BFFFF77AFD98
:10097000801B642873D828688003F7D50CE0FFF744
:1009800071FD064605E000BFFFF76CFD801B642883
:10099000F0D828688003F7D420789A4E80074FF06B
:1009A00001094FF0000839D5686810F00C0F07D026
:1009B0006868C0F38100022809D16868C00306D4C2
:1009C0002868800714D52069012808D110E0206923
:1009D000B0B1C6F80090FFF745FD074605E00AE113
:1009E000FFF740FDC01B0228C4D828688007F7D550
:1009F0002868616920F0F80040EAC10028600DE035
:100A0000C6F80080FFF72EFD074604E0FFF72AFD39
:100A1000C01B022823D828688007F7D42078000755
:100A20002CD57948A169D9B1C0F80090FFF71AFD1B
:100A3000074604E0FFF716FDC01B02280FD8686ABE
:100A40008007F7D571484FF4FA510068B0FBF1F018
:100A5000009000BF0098411E0091FAD20EE080E0A5
:100A6000C0F80080FFF7FEFC074604E0FFF7FAFC41
:100A7000C01B022875D8686A8007F7D42078400721
:100A800060D5E8690027C00008D4E86940F08050CC
:100A9000E861E869012700F0805000905C48016837
:100AA000C90513D40168834641F480710160FFF7E2
:100AB000D9FC824606E000BFFFF7D4FCA0EB0A0099
:100AC00064284ED8DBF80000C005F5D5E0680128A1
:100AD0000AD008B1052813D0286A20F00100286246
:100AE000286A20F0040002E0286A40F00100286231
:100AF000E06841F2883B98B1FFF7B4FC82460BE016
:100B0000286A40F004002862EEE700BFFFF7AAFC65
:100B1000A0EB0A0159455AD8286A8007F6D50CE09F
:100B2000FFF7A0FC824605E0FFF79CFCA0EB0A0162
:100B300059454CD8286A8007F6D41FB1E86920F0DF
:100B40008050E861E06988B36968C1F381010229D6
:100B500044D00228C6F8608004D0FFF783FC044626
:100B600038E034E0FFF77EFC074604E0FFF77AFC4C
:100B7000C01B02282BD828688001F7D4206AB0F562
:100B8000803F05D16868A16820F4003008436860A0
:100B9000D4E908010843696821F4741108436860C6
:100BA000C6F86090FFF75EFC044606E025E000BF53
:100BB000FFF758FC001B022809D828688001F7D5E8
:100BC0001BE000BFFFF74EFC001B022802D90320E8
:100BD000BDE8F88F28688001F4D40EE00128F7D032
:100BE0006868226A00F48031914204D1616A00F49D
:100BF0007010884201D00120EAE70020E8E70000F9
:100C000000100240000042428004424224000020C2
:100C100000700040F8B505004FF0000016460C4685
:100C2000009006D02CB100226946284600F019F841
:100C300008B10120F8BD287B2070E87BE070697B5B
:100C40006170A97BA17056B100F0A6FCE0706078DD
:100C500000F0A2FC6070A07800F09EFCA070002064
:100C6000F8BD2DE9F04791460C465FEA00084AD0EE
:100C700084B3D8F800004068400744D4404600F0F0
:100C800029FD4FF461620546B0FBF2F1B0FBF2F3CF
:100C900002FB13503C23B0FBF3F0B5FBF2F660709F
:100CA00002FB1650B0FBF3F203FB1200A0701829F0
:100CB00031D31820B1FBF0F7B1FBF0F200FB1210BA
:100CC0002070404600F0FFFC411C04D0A84202D92D
:100CD000461B02E017E04FF0FF36A7EB071000EBD2
:100CE0004000C0EB001005EBC0152946404600F05F
:100CF00040FD40B9701C01D0711900E031464046FA
:100D000000F023FD10B10120BDE8F08739464046D0
:100D100000F04DFC00E02170B9F1000F0BD02078FD
:100D200000F03AFC2070607800F036FC6070A0782B
:100D300000F032FCA0700020E6E7000070B504006F
:100D400003D0607C002610B105E0012070BD267440
:100D5000204600F03DF802206074204600F00AF9B9
:100D6000042550BB204600F079FC30BB2068416868
:100D700021F007014160A06820B11448016821F00A
:100D8000010101601148001F0168A26821F460712F
:100D9000114301606068411C04D10120FFF706FC8B
:100DA00058B1401E2268C0F303419160216880B2AF
:100DB000C860204600F06CFC08B16574C5E7E673B6
:100DC00001206073A0736074002070BD306C00401F
:100DD00008B50068084988420DD1FFF7E1FB0748D4
:100DE000C16941F00061C161C069054900F000605E
:100DF00000900120086008BD00280040001002405B
:100E00003C0442422DE9F0410D4604003BD0C5B3FD
:100E1000207C01283AD04FF0010884F8108002208D
:100E20006074E87872B300F0AEFBE073687800F0AD
:100E3000AAFB6073A87800F0A6FBA073C2B2617B26
:100E4000E07B00F057FC20732870204600F042FC45
:100E50004FF46161B0FBF1F1002518292DD918225A
:100E6000B1FBF2F1A1EB011101EB4101C1EB011169
:100E700000EBC1163146204600F07BFC0427C8B9C0
:100E80000BE000E004E00120BDE8F0810220FBE778
:100E9000E07368786073A878CFE7204600F013FC11
:100EA000411C0AD0B04208D206490144204600F055
:100EB0004CFC10B167742574E5E784F81180257443
:100EC0000020E1E7805101002DE9F0410D460400CA
:100ED00024D01DB3207C012823D04FF0010884F8D2
:100EE0001080022060742878EAB100F04CFB4FF4C7
:100EF000616100FB01F6687800F045FBC0EB001073
:100F000006EB8006A87800F03EFB351829462046FF
:100F100000F02FFC0026042710BB0FE00120BDE8E5
:100F2000F0810220FBE74FF4616148436978C1EB2F
:100F3000011100EB8100A9784518E7E720684168B6
:100F400021F005014160204600F0BDFB411C0AD0A4
:100F5000A84208D206490144204600F0F6FB10B131
:100F600067742674DAE784F8118026740020D6E7C7
:100F70008051010070B504000AD02068416821F05A
:100F800008014160FFF76EFA05464FF47A7608E0F3
:100F9000012070BDFFF766FA401BB04201D9032063
:100FA00070BD206840680007F4D5002070BD10B502
:100FB000401EB0F1807F01D3012010BD4FF0E0242E
:100FC00060610F21601700F085FD0020A0610720FF
:100FD0002061002010BD704770470000F8B501681F
:100FE00004460868CA684B6910F00F0F4FF00005FF
:100FF00059D003F0010602F49077374365D0C1075A
:1010000005D0D10503D5616C41F001016164410750
:1010100005D5D90703D0616C41F0020161648107F5
:1010200005D5D90703D0616C41F004016164010763
:1010300007D502F02001314303D0616C41F0080173
:101040006164616C00293AD0800604D5900602D50F
:10105000204600F015FC20684069616CC0F38010E8
:10106000090700D460B3204600F0E3FB2068406924
:10107000400621D52068143050E8001F21F04001BF
:1010800040E80012002AF5D1E06BA8B16D49416338
:10109000E06BFFF7ABF8002811D0E06B416B01B0BB
:1010A000BDE8F040084783060FD593060DD52046CE
:1010B000BDE8F84000F0E4BB2046FFF78DFFF8BD27
:1010C0002046FFF789FF6564F8BD266B2023012EBB
:1010D0007CD1C6067AD5D60678D5086848680090CF
:1010E00048694FF00206400640D5E16B0868406849
:1010F0000004000CE8D0A28D8242E5D9E085886921
:1011000020282DD020680C3050E8001F21F4807179
:1011100040E80012002AF5D12068143050E8001F82
:1011200021F0010140E80012002AF5D120681430B6
:1011300050E8001F21F0400140E80012002AF5D1DC
:1011400084F84230256320680C3050E8001F21F0FD
:10115000100140E80012002AF5D1E06BFFF722F8F9
:101160006663A08DE18D401A81B22AE0A08DE18DE9
:10117000401A81B2E08D0028A6D00029A4D02268B0
:101180000C3252E8000F20F4907042E80007002F64
:10119000F5D12068143050E8002F22F0010240E819
:1011A0000027002FF5D184F84230256320680C30E9
:1011B00050E8002F22F0100240E80023002BF5D168
:1011C00066632046FFF707FFF8BDFFE705062BD54E
:1011D000150629D594F841002128F5D1A068B0F56D
:1011E000805F01D12069B0B1206A411C2162216871
:1011F00000784860E08C401E0004000CE084E3D1DD
:101200002068C16821F08001C1602068C16841F098
:101210004001C160D8E7206A0088C0F30800486038
:10122000206A801C2062E5E74006CDD55006CBD56C
:10123000CA68204622F04002CA6084F8413000F0BB
:101240002DF9C1E72318000870B5040004D094F804
:101250004100002510B106E0012070BD84F8405027
:10126000204600F023F8242084F841002068C1685B
:1012700021F40051C160204600F064FB2068016940
:1012800021F4904101612068416921F02A01416106
:101290002068C16841F40051C1606564202084F871
:1012A000410084F842006563002070BD30B585B010
:1012B0000024009401940294039400681849884221
:1012C0002CD11848816941F480418161816901F420
:1012D00080410491816941F0040181618069124D6E
:1012E00000F0040004904FF4007000900220019080
:1012F0000320039069462846FEF7C4FF2815CDE970
:101300000004694628460294FEF7BCFF00221146FD
:101310002520FFF713F92520FFF702F905B030BDAE
:1013200000380140001002400008014090F84230AF
:10133000202B01D00220704721B11AB10023036392
:1013400000F05CBB01207047FEB51E49884230D1D9
:101350001D48017830292CD14178782929D181780C
:10136000462926D1C078462823D118A000F0A2FB38
:1013700015490122C91F1748FFF773FC12490122C2
:10138000091F1448FFF746FC0F49C91F881F0C7836
:1013900004704D7845708E78CB1C8670D978C170FA
:1013A0005A7802719B7843718DE870000AA000F0B2
:1013B00081FB03B00422BDE8F04003490148FFF778
:1013C000B5BF00003C0000200D00002030784646EC
:1013D0000D0A000028000020CFD6D4DACAC7256441
:1013E000C4EA2564D4C22564C8D52564CAB125647D
:1013F000B7D62564C3EB0D0A000000002DE9F843C1
:10140000044690F84100984616460D46202802D022
:101410000220BDE8F88385B17EB100206064212000
:1014200084F84100FFF71EF8A6848146E684A06890
:101430002027B0F5805F02D003E00120E9E72069B2
:1014400010B12E4600250EE000260CE0802120463B
:1014500000F0EFFAA8B9C6B116F8010B2168486090
:10146000E08C401EE084E08C4B464FF00002CDF84B
:1014700000800028EAD14FF04001204600F0D9FA60
:1014800040B184F841700320C3E735F8020BC0F384
:101490000800E3E784F841700020BAE77047FEE7F0
:1014A0000D4808B5816941F010018161816901F041
:1014B00010010091816941F020018161816901F091
:1014C00020010091816941F004018161806900F08F
:1014D0000400009008BD0000001002401CB500246C
:1014E00018480194164900940160611E41604FF450
:1014F00080718160FFF722FC08B1FEF751FE8DF884
:1015000004408DF805408DF80640012201A90D48E0
:10151000FFF7DAFC08B1FEF743FE01208DF800006A
:101520008DF801008DF8020002468DF803406946EF
:101530000448FFF767FC002801D0FEF731FE1CBD10
:1015400000280040280000200C4810B50A4901601E
:101550004FF416514160002181600C22C160C0E946
:1015600004128161C161FFF76FFE002803D0BDE85E
:101570001040FEF715BE10BD003801403C000020B1
:10158000FEE7FEE77047010901EB810100F00F0063
:1015900000EB4100C0B27047002102E00A38C0B23F
:1015A000491C0A28FAD2090740EA116070472DE960
:1015B000F04104460025C07B627BA37B42E0012A08
:1015C00016D0032A14D0052A12D0072A10D0082AD0
:1015D0000ED00A2A0CD00C2A0AD0042A10D0062ACF
:1015E0000ED0092A0CD00B2A0AD0022A0DD028E0EE
:1015F0001F2B0CD30C2A05D101221346401C20E0DE
:101600001E2B04D30123521C1BE01C2B02D203F11E
:10161000010316E011D183B29E0710D16426B3FBFB
:10162000F6F706FB173636B94FF4C876B3FBF6F774
:1016300006FB17331BB91D2303E01D2B01D1032229
:1016400001236D1C8D42BAD3D1B2E0736173DAB25B
:10165000A27300F04FF82073BDE8F08170B5044626
:10166000FEF700FF05464FF47A7606E0FEF7FAFE35
:10167000401BB04201D9032070BD2068406880063D
:10168000F4D52068416841F010014160002070BD30
:1016900070B504460068416821F010014160FEF712
:1016A000E1FE05464FF47A7607E000BFFEF7DAFE6A
:1016B000401BB04201D9032070BD206840688006FD
:1016C000F4D5002070BD0168086A496A89B241EA10
:1016D00000407047006881698AB2C1698BB2816934
:1016E00089B28A4203D0C06961F31F40704743EA60
:1016F00002407047F0B56424C1EBC1030927A5007F
:10170000072603EB01130329B3FBF7F100F5FA6099
:10171000114401440AD2401EB0FBF4F201EB9001E7
:10172000B0FBF5F0891A0844001D08E0B0FBF4F2A4
:1017300001EB9001B0FBF5F0891A0844801CB0FB66
:10174000F6F106FB1100C0B2F0BD70B50D460646BD
:101750000024FFF783FF48B93168280C086231681C
:10176000A8B248623046FFF793FF00B1012420463B
:1017700070BD70B50D4606460024FFF76FFF48B9EF
:101780003168280C88613168A8B2C8613046FFF71B
:101790007FFF00B10124204670BD7047FEF768BE90
:1017A00070B594B028216846FEF7C5FC14210AA83C
:1017B000FEF7C1FC002501240F9511950520129517
:1017C0000090CDE9025410954FF48030019002262C
:1017D0000494CDE907604FF4E01009906846FFF7E4
:1017E00089F808B172B6FEE70F20CDE90A064FF47A
:1017F0008060CDE90C5002210AA80E95FEF79EFFED
:1018000008B172B6FEE74FF48070CDE90F400FA823
:10181000FEF71EFF002801D072B6FEE714B070BDBF
:10182000704710B5406A0021C185C184FFF7D4FB21
:1018300010BD01680C3151E8002F22F4907241E88C
:101840000023002BF5D10168143151E8002F22F05C
:10185000010241E80023002BF5D1016B012909D1D8
:1018600001680C3151E8002F22F0100241E80023FA
:10187000002BF5D1202180F8421000210163704730
:1018800008B590F84210222901D0022008BD8268D4
:101890004FF480539A4201D1016921B1816A9A4281
:1018A0001BD04AB10AE00268816A5268C2F308029A
:1018B0000A80816A891C08E0026972B10268526874
:1018C00002F07F020A70816A491C8162C18D491E43
:1018D0000904090CC18503D01BE002685268F1E7D6
:1018E0000168CA6822F02002CA600168CA6822F44E
:1018F0008072CA6001684A6922F001024A612021AF
:1019000080F8421000214163026B012A03D0FFF7E7
:101910001BFD002008BD016301680C3151E8002F58
:1019200022F0100241E80023002BF5D101680A687B
:10193000D20602D50A6849680091818DFFF74BFBFA
:10194000E7E7000070B5044600680169E26821F429
:101950004051114301612169A0680843616908434E
:101960002168CA6841F20C639A430243CA60206846
:101970004169A26921F44071114341611E49206807
:10198000884202D1FEF780FF01E0FEF76DFF00EB19
:10199000C00101EB0012606864218000B2FBF0F32B
:1019A000B3FBF1F36FF018067343B2FBF0F5B2FB33
:1019B000F0F605EB8305322303EB0515B5FBF1F5D6
:1019C000B6FBF1F605F0F00505EB0615B2FBF0F6F7
:1019D000B2FBF0F0B0FBF1F06FF01802504306EBF1
:1019E000800003EB0010B0FBF1F0216800F00F0065
:1019F0002844886070BD0000003801408162828503
:101A0000C28500214164222180F84210016921B180
:101A10000168CA6842F48072CA6001684A6942F08B
:101A200001024A610068C16841F02001C1600020E4
:101A300070472DE9F843984617460D460446089E20
:101A400024E0701C22D0FEF70DFDA0EB0800B04290
:101A50001AD8CEB12068C168490717D5802D15D096
:101A6000402D13D00168C94309070FD40168002530
:101A7000406800902046FFF7DCFE0820606484F890
:101A800040500120BDE8F8830320FBE72068006890
:101A900035EA000004D00020B842D2D00020F1E79F
:101AA0000120F9E70148FFF799BA00003C00002047
:101AB000FEE700000FB4054B10B503A9044A0298D5
:101AC00000F028F810BC5DF814FB0000691C000849
:101AD000140000200907090E002804DB00F1E020B3
:101AE00080F80014704700F00F0000F1E02080F84B
:101AF000141D704702E008C8121F08C1002AFAD15D
:101B000070477047002001E001C1121F002AFBD17D
:101B1000704700002DE9FF4F89B09B460446002521
:101B200006E025280BD05A460B999047641C6D1C83
:101B300020780028F5D10DB02846BDE8F08F0027A9
:101B4000B8460122474900E0074314F8013F203B13
:101B500002FA03F00842F7D120782E2819D114F8A0
:101B6000010F47F004072A280ED06FF02F022078CB
:101B7000A0F1300109290CD808EB880102EB4101E2
:101B800000EB0108641CF2E70A98641C50F8048B0F
:101B90000A9020780028CED0642808D0692806D082
:101BA00075281ED05A460B9990476D1C58E00A992B
:101BB0004FF00A0901C90A91002802DA40422D219A
:101BC00002E0390504D52B218DF82010012103E016
:101BD000F90704D02021F7E78A4608AE0DE000217E
:101BE000FAE70A994FF00A0901C90A91F7E749464D
:101BF000FEF7ACFA303106F8011D0028F7D1ADEB45
:101C0000060000F12009780701D44FF00108C8450B
:101C100002DDA8EB090000E000208046002706E076
:101C200008A85A46C05D0B9990476D1C7F1C57450C
:101C3000F6DB04E030205A460B9990476D1CB8F152
:101C40000001A8F10108F5DC05E016F8010B5A4681
:101C50000B9990476D1CB9F10001A9F10109F4DC61
:101C6000641C65E70928010013B50A2301226946AF
:101C70000248FFF7C3FB00981CBD00003C00002099
:101C8000FEF7FEFBFFF78CFDFFF70AFCFFF726FCD3
:101C9000FFF75AFC042202490248FFF747FBFEE720
:101CA0000D0000203C00002001020203040506078D
:101CB00008090A0B0C0D0E0F101001020203040597
:101CC000060708090A0B0C0D0E0F1010000000008B
:101CD00000000000010203040607080900000000DC
:101CE00001020304041D0008000000202800000079
:101CF000F41A00082C1D00082800002060040000D1
:101D0000041B0008000000000000000000000000AC
:101D100000000000000000000000000001000000C2
:0C1D2000100000000000000000127A001B
:04000005080000ED02
:00000001FF
